{
	"contracts/kipubank.sol": {
		"KipuBank": {
			"abi": [
				{
					"inputs": [
						{
							"internalType": "uint256",
							"name": "_withdrawalLimit",
							"type": "uint256"
						},
						{
							"internalType": "uint256",
							"name": "_bankCap",
							"type": "uint256"
						}
					],
					"stateMutability": "nonpayable",
					"type": "constructor"
				},
				{
					"inputs": [
						{
							"internalType": "uint256",
							"name": "attempted",
							"type": "uint256"
						},
						{
							"internalType": "uint256",
							"name": "available",
							"type": "uint256"
						}
					],
					"name": "BankCapExceeded",
					"type": "error"
				},
				{
					"inputs": [
						{
							"internalType": "uint256",
							"name": "requested",
							"type": "uint256"
						},
						{
							"internalType": "uint256",
							"name": "available",
							"type": "uint256"
						}
					],
					"name": "InsufficientBalance",
					"type": "error"
				},
				{
					"inputs": [],
					"name": "TransferFailed",
					"type": "error"
				},
				{
					"inputs": [
						{
							"internalType": "uint256",
							"name": "requested",
							"type": "uint256"
						},
						{
							"internalType": "uint256",
							"name": "limit",
							"type": "uint256"
						}
					],
					"name": "WithdrawalLimitExceeded",
					"type": "error"
				},
				{
					"inputs": [],
					"name": "ZeroAmount",
					"type": "error"
				},
				{
					"anonymous": false,
					"inputs": [
						{
							"indexed": true,
							"internalType": "address",
							"name": "user",
							"type": "address"
						},
						{
							"indexed": false,
							"internalType": "uint256",
							"name": "amount",
							"type": "uint256"
						}
					],
					"name": "Deposit",
					"type": "event"
				},
				{
					"anonymous": false,
					"inputs": [
						{
							"indexed": true,
							"internalType": "address",
							"name": "user",
							"type": "address"
						},
						{
							"indexed": false,
							"internalType": "uint256",
							"name": "amount",
							"type": "uint256"
						}
					],
					"name": "Withdrawal",
					"type": "event"
				},
				{
					"inputs": [],
					"name": "bankCap",
					"outputs": [
						{
							"internalType": "uint256",
							"name": "",
							"type": "uint256"
						}
					],
					"stateMutability": "view",
					"type": "function"
				},
				{
					"inputs": [],
					"name": "deposit",
					"outputs": [],
					"stateMutability": "payable",
					"type": "function"
				},
				{
					"inputs": [],
					"name": "depositCount",
					"outputs": [
						{
							"internalType": "uint256",
							"name": "",
							"type": "uint256"
						}
					],
					"stateMutability": "view",
					"type": "function"
				},
				{
					"inputs": [],
					"name": "getAvailableCapacity",
					"outputs": [
						{
							"internalType": "uint256",
							"name": "",
							"type": "uint256"
						}
					],
					"stateMutability": "view",
					"type": "function"
				},
				{
					"inputs": [
						{
							"internalType": "address",
							"name": "_user",
							"type": "address"
						}
					],
					"name": "getBalance",
					"outputs": [
						{
							"internalType": "uint256",
							"name": "",
							"type": "uint256"
						}
					],
					"stateMutability": "view",
					"type": "function"
				},
				{
					"inputs": [],
					"name": "totalDeposits",
					"outputs": [
						{
							"internalType": "uint256",
							"name": "",
							"type": "uint256"
						}
					],
					"stateMutability": "view",
					"type": "function"
				},
				{
					"inputs": [
						{
							"internalType": "uint256",
							"name": "_amount",
							"type": "uint256"
						}
					],
					"name": "withdraw",
					"outputs": [],
					"stateMutability": "nonpayable",
					"type": "function"
				},
				{
					"inputs": [],
					"name": "withdrawalCount",
					"outputs": [
						{
							"internalType": "uint256",
							"name": "",
							"type": "uint256"
						}
					],
					"stateMutability": "view",
					"type": "function"
				},
				{
					"inputs": [],
					"name": "withdrawalLimit",
					"outputs": [
						{
							"internalType": "uint256",
							"name": "",
							"type": "uint256"
						}
					],
					"stateMutability": "view",
					"type": "function"
				}
			],
			"devdoc": {
				"details": "Implements secure deposit and withdrawal mechanisms with limits",
				"events": {
					"Deposit(address,uint256)": {
						"params": {
							"amount": "Amount of ETH deposited",
							"user": "Address of the user who made the deposit"
						}
					},
					"Withdrawal(address,uint256)": {
						"params": {
							"amount": "Amount of ETH withdrawn",
							"user": "Address of the user who made the withdrawal"
						}
					}
				},
				"kind": "dev",
				"methods": {
					"constructor": {
						"params": {
							"_bankCap": "Maximum total amount that can be deposited in the bank",
							"_withdrawalLimit": "Maximum amount that can be withdrawn in a single transaction"
						}
					},
					"deposit()": {
						"details": "Emits a Deposit event on success"
					},
					"getAvailableCapacity()": {
						"returns": {
							"_0": "The remaining capacity that can be deposited"
						}
					},
					"getBalance(address)": {
						"params": {
							"_user": "Address of the user"
						},
						"returns": {
							"_0": "The balance of the specified user"
						}
					},
					"withdraw(uint256)": {
						"details": "Follows checks-effects-interactions pattern and emits a Withdrawal event on success",
						"params": {
							"_amount": "Amount of ETH to withdraw"
						}
					}
				},
				"stateVariables": {
					"bankCap": {
						"details": "This value is immutable and set during contract deployment"
					},
					"withdrawalLimit": {
						"details": "This value is immutable and set during contract deployment"
					}
				},
				"title": "KipuBank",
				"version": 1
			},
			"evm": {
				"assembly": "    /* \"contracts/kipubank.sol\":237:5149  contract KipuBank {... */\n  mstore(0x40, 0xc0)\n    /* \"contracts/kipubank.sol\":2345:2480  constructor(uint256 _withdrawalLimit, uint256 _bankCap) {... */\n  callvalue\n  dup1\n  iszero\n  tag_1\n  jumpi\n  revert(0x00, 0x00)\ntag_1:\n  pop\n  mload(0x40)\n  sub(codesize, bytecodeSize)\n  dup1\n  bytecodeSize\n  dup4\n  codecopy\n  dup2\n  dup2\n  add\n  0x40\n  mstore\n  dup2\n  add\n  swap1\n  tag_2\n  swap2\n  swap1\n  tag_3\n  jump\t// in\ntag_2:\n    /* \"contracts/kipubank.sol\":2429:2445  _withdrawalLimit */\n  dup2\n    /* \"contracts/kipubank.sol\":2411:2445  withdrawalLimit = _withdrawalLimit */\n  0x80\n  dup2\n  dup2\n  mstore\n  pop\n  pop\n    /* \"contracts/kipubank.sol\":2465:2473  _bankCap */\n  dup1\n    /* \"contracts/kipubank.sol\":2455:2473  bankCap = _bankCap */\n  0xa0\n  dup2\n  dup2\n  mstore\n  pop\n  pop\n    /* \"contracts/kipubank.sol\":2345:2480  constructor(uint256 _withdrawalLimit, uint256 _bankCap) {... */\n  pop\n  pop\n    /* \"contracts/kipubank.sol\":237:5149  contract KipuBank {... */\n  jump(tag_6)\n    /* \"#utility.yul\":88:205   */\ntag_8:\n    /* \"#utility.yul\":197:198   */\n  0x00\n    /* \"#utility.yul\":194:195   */\n  0x00\n    /* \"#utility.yul\":187:199   */\n  revert\n    /* \"#utility.yul\":334:411   */\ntag_10:\n    /* \"#utility.yul\":371:378   */\n  0x00\n    /* \"#utility.yul\":400:405   */\n  dup2\n    /* \"#utility.yul\":389:405   */\n  swap1\n  pop\n    /* \"#utility.yul\":334:411   */\n  swap2\n  swap1\n  pop\n  jump\t// out\n    /* \"#utility.yul\":417:539   */\ntag_11:\n    /* \"#utility.yul\":490:514   */\n  tag_19\n    /* \"#utility.yul\":508:513   */\n  dup2\n    /* \"#utility.yul\":490:514   */\n  tag_10\n  jump\t// in\ntag_19:\n    /* \"#utility.yul\":483:488   */\n  dup2\n    /* \"#utility.yul\":480:515   */\n  eq\n    /* \"#utility.yul\":470:533   */\n  tag_20\n  jumpi\n    /* \"#utility.yul\":529:530   */\n  0x00\n    /* \"#utility.yul\":526:527   */\n  0x00\n    /* \"#utility.yul\":519:531   */\n  revert\n    /* \"#utility.yul\":470:533   */\ntag_20:\n    /* \"#utility.yul\":417:539   */\n  pop\n  jump\t// out\n    /* \"#utility.yul\":545:688   */\ntag_12:\n    /* \"#utility.yul\":602:607   */\n  0x00\n    /* \"#utility.yul\":633:639   */\n  dup2\n    /* \"#utility.yul\":627:640   */\n  mload\n    /* \"#utility.yul\":618:640   */\n  swap1\n  pop\n    /* \"#utility.yul\":649:682   */\n  tag_22\n    /* \"#utility.yul\":676:681   */\n  dup2\n    /* \"#utility.yul\":649:682   */\n  tag_11\n  jump\t// in\ntag_22:\n    /* \"#utility.yul\":545:688   */\n  swap3\n  swap2\n  pop\n  pop\n  jump\t// out\n    /* \"#utility.yul\":694:1201   */\ntag_3:\n    /* \"#utility.yul\":773:779   */\n  0x00\n    /* \"#utility.yul\":781:787   */\n  0x00\n    /* \"#utility.yul\":830:832   */\n  0x40\n    /* \"#utility.yul\":818:827   */\n  dup4\n    /* \"#utility.yul\":809:816   */\n  dup6\n    /* \"#utility.yul\":805:828   */\n  sub\n    /* \"#utility.yul\":801:833   */\n  slt\n    /* \"#utility.yul\":798:917   */\n  iszero\n  tag_24\n  jumpi\n    /* \"#utility.yul\":836:915   */\n  tag_25\n  tag_8\n  jump\t// in\ntag_25:\n    /* \"#utility.yul\":798:917   */\ntag_24:\n    /* \"#utility.yul\":956:957   */\n  0x00\n    /* \"#utility.yul\":981:1045   */\n  tag_26\n    /* \"#utility.yul\":1037:1044   */\n  dup6\n    /* \"#utility.yul\":1028:1034   */\n  dup3\n    /* \"#utility.yul\":1017:1026   */\n  dup7\n    /* \"#utility.yul\":1013:1035   */\n  add\n    /* \"#utility.yul\":981:1045   */\n  tag_12\n  jump\t// in\ntag_26:\n    /* \"#utility.yul\":971:1045   */\n  swap3\n  pop\n    /* \"#utility.yul\":927:1055   */\n  pop\n    /* \"#utility.yul\":1094:1096   */\n  0x20\n    /* \"#utility.yul\":1120:1184   */\n  tag_27\n    /* \"#utility.yul\":1176:1183   */\n  dup6\n    /* \"#utility.yul\":1167:1173   */\n  dup3\n    /* \"#utility.yul\":1156:1165   */\n  dup7\n    /* \"#utility.yul\":1152:1174   */\n  add\n    /* \"#utility.yul\":1120:1184   */\n  tag_12\n  jump\t// in\ntag_27:\n    /* \"#utility.yul\":1110:1184   */\n  swap2\n  pop\n    /* \"#utility.yul\":1065:1194   */\n  pop\n    /* \"#utility.yul\":694:1201   */\n  swap3\n  pop\n  swap3\n  swap1\n  pop\n  jump\t// out\n    /* \"contracts/kipubank.sol\":237:5149  contract KipuBank {... */\ntag_6:\n  mload(0x80)\n  mload(0xa0)\n  codecopy(0x00, dataOffset(sub_0), dataSize(sub_0))\n  0x00\n  assignImmutable(\"0xe4b1702d9298fee62dfeccc57d322a463ad55ca201256d01f62b45b2e1c21c10\")\n  0x00\n  assignImmutable(\"0xceebf77a833b30520287ddd9478ff51abbdffa30aa90a8d655dba0e8a79ce0c1\")\n  return(0x00, dataSize(sub_0))\nstop\n\nsub_0: assembly {\n        /* \"contracts/kipubank.sol\":237:5149  contract KipuBank {... */\n      mstore(0x40, 0x80)\n      jumpi(tag_1, lt(calldatasize, 0x04))\n      shr(0xe0, calldataload(0x00))\n      dup1\n      0x7d882097\n      gt\n      tag_11\n      jumpi\n      dup1\n      0x7d882097\n      eq\n      tag_6\n      jumpi\n      dup1\n      0x7ddfe78d\n      eq\n      tag_7\n      jumpi\n      dup1\n      0xd0e30db0\n      eq\n      tag_8\n      jumpi\n      dup1\n      0xecbea24d\n      eq\n      tag_9\n      jumpi\n      dup1\n      0xf8b2cb4f\n      eq\n      tag_10\n      jumpi\n      jump(tag_1)\n    tag_11:\n      dup1\n      0x2dfdf0b5\n      eq\n      tag_2\n      jumpi\n      dup1\n      0x2e1a7d4d\n      eq\n      tag_3\n      jumpi\n      dup1\n      0x370dad80\n      eq\n      tag_4\n      jumpi\n      dup1\n      0x71706cbe\n      eq\n      tag_5\n      jumpi\n    tag_1:\n      revert(0x00, 0x00)\n        /* \"contracts/kipubank.sol\":803:830  uint256 public depositCount */\n    tag_2:\n      callvalue\n      dup1\n      iszero\n      tag_12\n      jumpi\n      revert(0x00, 0x00)\n    tag_12:\n      pop\n      tag_13\n      tag_14\n      jump\t// in\n    tag_13:\n      mload(0x40)\n      tag_15\n      swap2\n      swap1\n      tag_16\n      jump\t// in\n    tag_15:\n      mload(0x40)\n      dup1\n      swap2\n      sub\n      swap1\n      return\n        /* \"contracts/kipubank.sol\":3564:4244  function withdraw(uint256 _amount) external nonZeroAmount(_amount) {... */\n    tag_3:\n      callvalue\n      dup1\n      iszero\n      tag_17\n      jumpi\n      revert(0x00, 0x00)\n    tag_17:\n      pop\n      tag_18\n      0x04\n      dup1\n      calldatasize\n      sub\n      dup2\n      add\n      swap1\n      tag_19\n      swap2\n      swap1\n      tag_20\n      jump\t// in\n    tag_19:\n      tag_21\n      jump\t// in\n    tag_18:\n      stop\n        /* \"contracts/kipubank.sol\":4651:4762  function getAvailableCapacity() external view returns (uint256) {... */\n    tag_4:\n      callvalue\n      dup1\n      iszero\n      tag_22\n      jumpi\n      revert(0x00, 0x00)\n    tag_22:\n      pop\n      tag_23\n      tag_24\n      jump\t// in\n    tag_23:\n      mload(0x40)\n      tag_25\n      swap2\n      swap1\n      tag_16\n      jump\t// in\n    tag_25:\n      mload(0x40)\n      dup1\n      swap2\n      sub\n      swap1\n      return\n        /* \"contracts/kipubank.sol\":903:933  uint256 public withdrawalCount */\n    tag_5:\n      callvalue\n      dup1\n      iszero\n      tag_26\n      jumpi\n      revert(0x00, 0x00)\n    tag_26:\n      pop\n      tag_27\n      tag_28\n      jump\t// in\n    tag_27:\n      mload(0x40)\n      tag_29\n      swap2\n      swap1\n      tag_16\n      jump\t// in\n    tag_29:\n      mload(0x40)\n      dup1\n      swap2\n      sub\n      swap1\n      return\n        /* \"contracts/kipubank.sol\":705:733  uint256 public totalDeposits */\n    tag_6:\n      callvalue\n      dup1\n      iszero\n      tag_30\n      jumpi\n      revert(0x00, 0x00)\n    tag_30:\n      pop\n      tag_31\n      tag_32\n      jump\t// in\n    tag_31:\n      mload(0x40)\n      tag_33\n      swap2\n      swap1\n      tag_16\n      jump\t// in\n    tag_33:\n      mload(0x40)\n      dup1\n      swap2\n      sub\n      swap1\n      return\n        /* \"contracts/kipubank.sol\":410:450  uint256 public immutable withdrawalLimit */\n    tag_7:\n      callvalue\n      dup1\n      iszero\n      tag_34\n      jumpi\n      revert(0x00, 0x00)\n    tag_34:\n      pop\n      tag_35\n      tag_36\n      jump\t// in\n    tag_35:\n      mload(0x40)\n      tag_37\n      swap2\n      swap1\n      tag_16\n      jump\t// in\n    tag_37:\n      mload(0x40)\n      dup1\n      swap2\n      sub\n      swap1\n      return\n        /* \"contracts/kipubank.sol\":2852:3328  function deposit() external payable nonZeroAmount(msg.value) {... */\n    tag_8:\n      tag_38\n      tag_39\n      jump\t// in\n    tag_38:\n      stop\n        /* \"contracts/kipubank.sol\":600:632  uint256 public immutable bankCap */\n    tag_9:\n      callvalue\n      dup1\n      iszero\n      tag_40\n      jumpi\n      revert(0x00, 0x00)\n    tag_40:\n      pop\n      tag_41\n      tag_42\n      jump\t// in\n    tag_41:\n      mload(0x40)\n      tag_43\n      swap2\n      swap1\n      tag_16\n      jump\t// in\n    tag_43:\n      mload(0x40)\n      dup1\n      swap2\n      sub\n      swap1\n      return\n        /* \"contracts/kipubank.sol\":4405:4515  function getBalance(address _user) external view returns (uint256) {... */\n    tag_10:\n      callvalue\n      dup1\n      iszero\n      tag_44\n      jumpi\n      revert(0x00, 0x00)\n    tag_44:\n      pop\n      tag_45\n      0x04\n      dup1\n      calldatasize\n      sub\n      dup2\n      add\n      swap1\n      tag_46\n      swap2\n      swap1\n      tag_47\n      jump\t// in\n    tag_46:\n      tag_48\n      jump\t// in\n    tag_45:\n      mload(0x40)\n      tag_49\n      swap2\n      swap1\n      tag_16\n      jump\t// in\n    tag_49:\n      mload(0x40)\n      dup1\n      swap2\n      sub\n      swap1\n      return\n        /* \"contracts/kipubank.sol\":803:830  uint256 public depositCount */\n    tag_14:\n      sload(0x01)\n      dup2\n      jump\t// out\n        /* \"contracts/kipubank.sol\":3564:4244  function withdraw(uint256 _amount) external nonZeroAmount(_amount) {... */\n    tag_21:\n        /* \"contracts/kipubank.sol\":3622:3629  _amount */\n      dup1\n        /* \"contracts/kipubank.sol\":2676:2677  0 */\n      0x00\n        /* \"contracts/kipubank.sol\":2665:2672  _amount */\n      dup2\n        /* \"contracts/kipubank.sol\":2665:2677  _amount == 0 */\n      sub\n        /* \"contracts/kipubank.sol\":2661:2698  if (_amount == 0) revert ZeroAmount() */\n      tag_51\n      jumpi\n        /* \"contracts/kipubank.sol\":2686:2698  ZeroAmount() */\n      mload(0x40)\n      0x1f2a200500000000000000000000000000000000000000000000000000000000\n      dup2\n      mstore\n      0x04\n      add\n      mload(0x40)\n      dup1\n      swap2\n      sub\n      swap1\n      revert\n        /* \"contracts/kipubank.sol\":2661:2698  if (_amount == 0) revert ZeroAmount() */\n    tag_51:\n        /* \"contracts/kipubank.sol\":3673:3688  withdrawalLimit */\n      immutable(\"0xceebf77a833b30520287ddd9478ff51abbdffa30aa90a8d655dba0e8a79ce0c1\")\n        /* \"contracts/kipubank.sol\":3663:3670  _amount */\n      dup3\n        /* \"contracts/kipubank.sol\":3663:3688  _amount > withdrawalLimit */\n      gt\n        /* \"contracts/kipubank.sol\":3659:3771  if (_amount > withdrawalLimit) {... */\n      iszero\n      tag_53\n      jumpi\n        /* \"contracts/kipubank.sol\":3735:3742  _amount */\n      dup2\n        /* \"contracts/kipubank.sol\":3744:3759  withdrawalLimit */\n      immutable(\"0xceebf77a833b30520287ddd9478ff51abbdffa30aa90a8d655dba0e8a79ce0c1\")\n        /* \"contracts/kipubank.sol\":3711:3760  WithdrawalLimitExceeded(_amount, withdrawalLimit) */\n      mload(0x40)\n      0xb945e2d800000000000000000000000000000000000000000000000000000000\n      dup2\n      mstore\n      0x04\n      add\n      tag_54\n      swap3\n      swap2\n      swap1\n      tag_55\n      jump\t// in\n    tag_54:\n      mload(0x40)\n      dup1\n      swap2\n      sub\n      swap1\n      revert\n        /* \"contracts/kipubank.sol\":3659:3771  if (_amount > withdrawalLimit) {... */\n    tag_53:\n        /* \"contracts/kipubank.sol\":3795:3807  userBalances */\n      0x03\n        /* \"contracts/kipubank.sol\":3795:3819  userBalances[msg.sender] */\n      0x00\n        /* \"contracts/kipubank.sol\":3808:3818  msg.sender */\n      caller\n        /* \"contracts/kipubank.sol\":3795:3819  userBalances[msg.sender] */\n      0xffffffffffffffffffffffffffffffffffffffff\n      and\n      0xffffffffffffffffffffffffffffffffffffffff\n      and\n      dup2\n      mstore\n      0x20\n      add\n      swap1\n      dup2\n      mstore\n      0x20\n      add\n      0x00\n      keccak256\n      sload\n        /* \"contracts/kipubank.sol\":3785:3792  _amount */\n      dup3\n        /* \"contracts/kipubank.sol\":3785:3819  _amount > userBalances[msg.sender] */\n      gt\n        /* \"contracts/kipubank.sol\":3781:3907  if (_amount > userBalances[msg.sender]) {... */\n      iszero\n      tag_56\n      jumpi\n        /* \"contracts/kipubank.sol\":3862:3869  _amount */\n      dup2\n        /* \"contracts/kipubank.sol\":3871:3883  userBalances */\n      0x03\n        /* \"contracts/kipubank.sol\":3871:3895  userBalances[msg.sender] */\n      0x00\n        /* \"contracts/kipubank.sol\":3884:3894  msg.sender */\n      caller\n        /* \"contracts/kipubank.sol\":3871:3895  userBalances[msg.sender] */\n      0xffffffffffffffffffffffffffffffffffffffff\n      and\n      0xffffffffffffffffffffffffffffffffffffffff\n      and\n      dup2\n      mstore\n      0x20\n      add\n      swap1\n      dup2\n      mstore\n      0x20\n      add\n      0x00\n      keccak256\n      sload\n        /* \"contracts/kipubank.sol\":3842:3896  InsufficientBalance(_amount, userBalances[msg.sender]) */\n      mload(0x40)\n      0xcf47918100000000000000000000000000000000000000000000000000000000\n      dup2\n      mstore\n      0x04\n      add\n      tag_57\n      swap3\n      swap2\n      swap1\n      tag_55\n      jump\t// in\n    tag_57:\n      mload(0x40)\n      dup1\n      swap2\n      sub\n      swap1\n      revert\n        /* \"contracts/kipubank.sol\":3781:3907  if (_amount > userBalances[msg.sender]) {... */\n    tag_56:\n        /* \"contracts/kipubank.sol\":3964:3971  _amount */\n      dup2\n        /* \"contracts/kipubank.sol\":3936:3948  userBalances */\n      0x03\n        /* \"contracts/kipubank.sol\":3936:3960  userBalances[msg.sender] */\n      0x00\n        /* \"contracts/kipubank.sol\":3949:3959  msg.sender */\n      caller\n        /* \"contracts/kipubank.sol\":3936:3960  userBalances[msg.sender] */\n      0xffffffffffffffffffffffffffffffffffffffff\n      and\n      0xffffffffffffffffffffffffffffffffffffffff\n      and\n      dup2\n      mstore\n      0x20\n      add\n      swap1\n      dup2\n      mstore\n      0x20\n      add\n      0x00\n      keccak256\n      0x00\n        /* \"contracts/kipubank.sol\":3936:3971  userBalances[msg.sender] -= _amount */\n      dup3\n      dup3\n      sload\n      tag_58\n      swap2\n      swap1\n      tag_59\n      jump\t// in\n    tag_58:\n      swap3\n      pop\n      pop\n      dup2\n      swap1\n      sstore\n      pop\n        /* \"contracts/kipubank.sol\":3998:4005  _amount */\n      dup2\n        /* \"contracts/kipubank.sol\":3981:3994  totalDeposits */\n      0x00\n      0x00\n        /* \"contracts/kipubank.sol\":3981:4005  totalDeposits -= _amount */\n      dup3\n      dup3\n      sload\n      tag_60\n      swap2\n      swap1\n      tag_59\n      jump\t// in\n    tag_60:\n      swap3\n      pop\n      pop\n      dup2\n      swap1\n      sstore\n      pop\n        /* \"contracts/kipubank.sol\":4015:4030  withdrawalCount */\n      0x02\n      0x00\n        /* \"contracts/kipubank.sol\":4015:4032  withdrawalCount++ */\n      dup2\n      sload\n      dup1\n      swap3\n      swap2\n      swap1\n      tag_61\n      swap1\n      tag_62\n      jump\t// in\n    tag_61:\n      swap2\n      swap1\n      pop\n      sstore\n      pop\n        /* \"contracts/kipubank.sol\":4068:4080  bool success */\n      0x00\n        /* \"contracts/kipubank.sol\":4086:4096  msg.sender */\n      caller\n        /* \"contracts/kipubank.sol\":4086:4101  msg.sender.call */\n      0xffffffffffffffffffffffffffffffffffffffff\n      and\n        /* \"contracts/kipubank.sol\":4109:4116  _amount */\n      dup4\n        /* \"contracts/kipubank.sol\":4086:4121  msg.sender.call{value: _amount}(\"\") */\n      mload(0x40)\n      tag_63\n      swap1\n      tag_64\n      jump\t// in\n    tag_63:\n      0x00\n      mload(0x40)\n      dup1\n      dup4\n      sub\n      dup2\n      dup6\n      dup8\n      gas\n      call\n      swap3\n      pop\n      pop\n      pop\n      returndatasize\n      dup1\n      0x00\n      dup2\n      eq\n      tag_67\n      jumpi\n      mload(0x40)\n      swap2\n      pop\n      and(add(returndatasize, 0x3f), not(0x1f))\n      dup3\n      add\n      0x40\n      mstore\n      returndatasize\n      dup3\n      mstore\n      returndatasize\n      0x00\n      0x20\n      dup5\n      add\n      returndatacopy\n      jump(tag_66)\n    tag_67:\n      0x60\n      swap2\n      pop\n    tag_66:\n      pop\n        /* \"contracts/kipubank.sol\":4067:4121  (bool success, ) = msg.sender.call{value: _amount}(\"\") */\n      pop\n      swap1\n      pop\n        /* \"contracts/kipubank.sol\":4136:4143  success */\n      dup1\n        /* \"contracts/kipubank.sol\":4131:4168  if (!success) revert TransferFailed() */\n      tag_68\n      jumpi\n        /* \"contracts/kipubank.sol\":4152:4168  TransferFailed() */\n      mload(0x40)\n      0x90b8ec1800000000000000000000000000000000000000000000000000000000\n      dup2\n      mstore\n      0x04\n      add\n      mload(0x40)\n      dup1\n      swap2\n      sub\n      swap1\n      revert\n        /* \"contracts/kipubank.sol\":4131:4168  if (!success) revert TransferFailed() */\n    tag_68:\n        /* \"contracts/kipubank.sol\":4217:4227  msg.sender */\n      caller\n        /* \"contracts/kipubank.sol\":4206:4237  Withdrawal(msg.sender, _amount) */\n      0xffffffffffffffffffffffffffffffffffffffff\n      and\n      0x7fcf532c15f0a6db0bd6d0e038bea71d30d808c7d98cb3bf7268a95bf5081b65\n        /* \"contracts/kipubank.sol\":4229:4236  _amount */\n      dup5\n        /* \"contracts/kipubank.sol\":4206:4237  Withdrawal(msg.sender, _amount) */\n      mload(0x40)\n      tag_69\n      swap2\n      swap1\n      tag_16\n      jump\t// in\n    tag_69:\n      mload(0x40)\n      dup1\n      swap2\n      sub\n      swap1\n      log2\n        /* \"contracts/kipubank.sol\":3631:4244  {... */\n      pop\n        /* \"contracts/kipubank.sol\":3564:4244  function withdraw(uint256 _amount) external nonZeroAmount(_amount) {... */\n      pop\n      pop\n      jump\t// out\n        /* \"contracts/kipubank.sol\":4651:4762  function getAvailableCapacity() external view returns (uint256) {... */\n    tag_24:\n        /* \"contracts/kipubank.sol\":4706:4713  uint256 */\n      0x00\n        /* \"contracts/kipubank.sol\":4742:4755  totalDeposits */\n      sload(0x00)\n        /* \"contracts/kipubank.sol\":4732:4739  bankCap */\n      immutable(\"0xe4b1702d9298fee62dfeccc57d322a463ad55ca201256d01f62b45b2e1c21c10\")\n        /* \"contracts/kipubank.sol\":4732:4755  bankCap - totalDeposits */\n      tag_71\n      swap2\n      swap1\n      tag_59\n      jump\t// in\n    tag_71:\n        /* \"contracts/kipubank.sol\":4725:4755  return bankCap - totalDeposits */\n      swap1\n      pop\n        /* \"contracts/kipubank.sol\":4651:4762  function getAvailableCapacity() external view returns (uint256) {... */\n      swap1\n      jump\t// out\n        /* \"contracts/kipubank.sol\":903:933  uint256 public withdrawalCount */\n    tag_28:\n      sload(0x02)\n      dup2\n      jump\t// out\n        /* \"contracts/kipubank.sol\":705:733  uint256 public totalDeposits */\n    tag_32:\n      sload(0x00)\n      dup2\n      jump\t// out\n        /* \"contracts/kipubank.sol\":410:450  uint256 public immutable withdrawalLimit */\n    tag_36:\n      immutable(\"0xceebf77a833b30520287ddd9478ff51abbdffa30aa90a8d655dba0e8a79ce0c1\")\n      dup2\n      jump\t// out\n        /* \"contracts/kipubank.sol\":2852:3328  function deposit() external payable nonZeroAmount(msg.value) {... */\n    tag_39:\n        /* \"contracts/kipubank.sol\":2902:2911  msg.value */\n      callvalue\n        /* \"contracts/kipubank.sol\":2676:2677  0 */\n      0x00\n        /* \"contracts/kipubank.sol\":2665:2672  _amount */\n      dup2\n        /* \"contracts/kipubank.sol\":2665:2677  _amount == 0 */\n      sub\n        /* \"contracts/kipubank.sol\":2661:2698  if (_amount == 0) revert ZeroAmount() */\n      tag_73\n      jumpi\n        /* \"contracts/kipubank.sol\":2686:2698  ZeroAmount() */\n      mload(0x40)\n      0x1f2a200500000000000000000000000000000000000000000000000000000000\n      dup2\n      mstore\n      0x04\n      add\n      mload(0x40)\n      dup1\n      swap2\n      sub\n      swap1\n      revert\n        /* \"contracts/kipubank.sol\":2661:2698  if (_amount == 0) revert ZeroAmount() */\n    tag_73:\n        /* \"contracts/kipubank.sol\":3010:3017  bankCap */\n      immutable(\"0xe4b1702d9298fee62dfeccc57d322a463ad55ca201256d01f62b45b2e1c21c10\")\n        /* \"contracts/kipubank.sol\":2998:3007  msg.value */\n      callvalue\n        /* \"contracts/kipubank.sol\":2982:2995  totalDeposits */\n      sload(0x00)\n        /* \"contracts/kipubank.sol\":2982:3007  totalDeposits + msg.value */\n      tag_75\n      swap2\n      swap1\n      tag_76\n      jump\t// in\n    tag_75:\n        /* \"contracts/kipubank.sol\":2982:3017  totalDeposits + msg.value > bankCap */\n      gt\n        /* \"contracts/kipubank.sol\":2978:3102  if (totalDeposits + msg.value > bankCap) {... */\n      iszero\n      tag_77\n      jumpi\n        /* \"contracts/kipubank.sol\":3056:3065  msg.value */\n      callvalue\n        /* \"contracts/kipubank.sol\":3077:3090  totalDeposits */\n      sload(0x00)\n        /* \"contracts/kipubank.sol\":3067:3074  bankCap */\n      immutable(\"0xe4b1702d9298fee62dfeccc57d322a463ad55ca201256d01f62b45b2e1c21c10\")\n        /* \"contracts/kipubank.sol\":3067:3090  bankCap - totalDeposits */\n      tag_78\n      swap2\n      swap1\n      tag_59\n      jump\t// in\n    tag_78:\n        /* \"contracts/kipubank.sol\":3040:3091  BankCapExceeded(msg.value, bankCap - totalDeposits) */\n      mload(0x40)\n      0x31728a0500000000000000000000000000000000000000000000000000000000\n      dup2\n      mstore\n      0x04\n      add\n      tag_79\n      swap3\n      swap2\n      swap1\n      tag_55\n      jump\t// in\n    tag_79:\n      mload(0x40)\n      dup1\n      swap2\n      sub\n      swap1\n      revert\n        /* \"contracts/kipubank.sol\":2978:3102  if (totalDeposits + msg.value > bankCap) {... */\n    tag_77:\n        /* \"contracts/kipubank.sol\":3184:3193  msg.value */\n      callvalue\n        /* \"contracts/kipubank.sol\":3156:3168  userBalances */\n      0x03\n        /* \"contracts/kipubank.sol\":3156:3180  userBalances[msg.sender] */\n      0x00\n        /* \"contracts/kipubank.sol\":3169:3179  msg.sender */\n      caller\n        /* \"contracts/kipubank.sol\":3156:3180  userBalances[msg.sender] */\n      0xffffffffffffffffffffffffffffffffffffffff\n      and\n      0xffffffffffffffffffffffffffffffffffffffff\n      and\n      dup2\n      mstore\n      0x20\n      add\n      swap1\n      dup2\n      mstore\n      0x20\n      add\n      0x00\n      keccak256\n      0x00\n        /* \"contracts/kipubank.sol\":3156:3193  userBalances[msg.sender] += msg.value */\n      dup3\n      dup3\n      sload\n      tag_80\n      swap2\n      swap1\n      tag_76\n      jump\t// in\n    tag_80:\n      swap3\n      pop\n      pop\n      dup2\n      swap1\n      sstore\n      pop\n        /* \"contracts/kipubank.sol\":3220:3229  msg.value */\n      callvalue\n        /* \"contracts/kipubank.sol\":3203:3216  totalDeposits */\n      0x00\n      0x00\n        /* \"contracts/kipubank.sol\":3203:3229  totalDeposits += msg.value */\n      dup3\n      dup3\n      sload\n      tag_81\n      swap2\n      swap1\n      tag_76\n      jump\t// in\n    tag_81:\n      swap3\n      pop\n      pop\n      dup2\n      swap1\n      sstore\n      pop\n        /* \"contracts/kipubank.sol\":3239:3251  depositCount */\n      0x01\n      0x00\n        /* \"contracts/kipubank.sol\":3239:3253  depositCount++ */\n      dup2\n      sload\n      dup1\n      swap3\n      swap2\n      swap1\n      tag_82\n      swap1\n      tag_62\n      jump\t// in\n    tag_82:\n      swap2\n      swap1\n      pop\n      sstore\n      pop\n        /* \"contracts/kipubank.sol\":3299:3309  msg.sender */\n      caller\n        /* \"contracts/kipubank.sol\":3291:3321  Deposit(msg.sender, msg.value) */\n      0xffffffffffffffffffffffffffffffffffffffff\n      and\n      0xe1fffcc4923d04b559f4d29a8bfc6cda04eb5b0d3c460751c2402c5c5cc9109c\n        /* \"contracts/kipubank.sol\":3311:3320  msg.value */\n      callvalue\n        /* \"contracts/kipubank.sol\":3291:3321  Deposit(msg.sender, msg.value) */\n      mload(0x40)\n      tag_83\n      swap2\n      swap1\n      tag_16\n      jump\t// in\n    tag_83:\n      mload(0x40)\n      dup1\n      swap2\n      sub\n      swap1\n      log2\n        /* \"contracts/kipubank.sol\":2852:3328  function deposit() external payable nonZeroAmount(msg.value) {... */\n      pop\n      jump\t// out\n        /* \"contracts/kipubank.sol\":600:632  uint256 public immutable bankCap */\n    tag_42:\n      immutable(\"0xe4b1702d9298fee62dfeccc57d322a463ad55ca201256d01f62b45b2e1c21c10\")\n      dup2\n      jump\t// out\n        /* \"contracts/kipubank.sol\":4405:4515  function getBalance(address _user) external view returns (uint256) {... */\n    tag_48:\n        /* \"contracts/kipubank.sol\":4463:4470  uint256 */\n      0x00\n        /* \"contracts/kipubank.sol\":4489:4501  userBalances */\n      0x03\n        /* \"contracts/kipubank.sol\":4489:4508  userBalances[_user] */\n      0x00\n        /* \"contracts/kipubank.sol\":4502:4507  _user */\n      dup4\n        /* \"contracts/kipubank.sol\":4489:4508  userBalances[_user] */\n      0xffffffffffffffffffffffffffffffffffffffff\n      and\n      0xffffffffffffffffffffffffffffffffffffffff\n      and\n      dup2\n      mstore\n      0x20\n      add\n      swap1\n      dup2\n      mstore\n      0x20\n      add\n      0x00\n      keccak256\n      sload\n        /* \"contracts/kipubank.sol\":4482:4508  return userBalances[_user] */\n      swap1\n      pop\n        /* \"contracts/kipubank.sol\":4405:4515  function getBalance(address _user) external view returns (uint256) {... */\n      swap2\n      swap1\n      pop\n      jump\t// out\n        /* \"#utility.yul\":7:84   */\n    tag_85:\n        /* \"#utility.yul\":44:51   */\n      0x00\n        /* \"#utility.yul\":73:78   */\n      dup2\n        /* \"#utility.yul\":62:78   */\n      swap1\n      pop\n        /* \"#utility.yul\":7:84   */\n      swap2\n      swap1\n      pop\n      jump\t// out\n        /* \"#utility.yul\":90:208   */\n    tag_86:\n        /* \"#utility.yul\":177:201   */\n      tag_103\n        /* \"#utility.yul\":195:200   */\n      dup2\n        /* \"#utility.yul\":177:201   */\n      tag_85\n      jump\t// in\n    tag_103:\n        /* \"#utility.yul\":172:175   */\n      dup3\n        /* \"#utility.yul\":165:202   */\n      mstore\n        /* \"#utility.yul\":90:208   */\n      pop\n      pop\n      jump\t// out\n        /* \"#utility.yul\":214:436   */\n    tag_16:\n        /* \"#utility.yul\":307:311   */\n      0x00\n        /* \"#utility.yul\":345:347   */\n      0x20\n        /* \"#utility.yul\":334:343   */\n      dup3\n        /* \"#utility.yul\":330:348   */\n      add\n        /* \"#utility.yul\":322:348   */\n      swap1\n      pop\n        /* \"#utility.yul\":358:429   */\n      tag_105\n        /* \"#utility.yul\":426:427   */\n      0x00\n        /* \"#utility.yul\":415:424   */\n      dup4\n        /* \"#utility.yul\":411:428   */\n      add\n        /* \"#utility.yul\":402:408   */\n      dup5\n        /* \"#utility.yul\":358:429   */\n      tag_86\n      jump\t// in\n    tag_105:\n        /* \"#utility.yul\":214:436   */\n      swap3\n      swap2\n      pop\n      pop\n      jump\t// out\n        /* \"#utility.yul\":523:640   */\n    tag_88:\n        /* \"#utility.yul\":632:633   */\n      0x00\n        /* \"#utility.yul\":629:630   */\n      0x00\n        /* \"#utility.yul\":622:634   */\n      revert\n        /* \"#utility.yul\":769:891   */\n    tag_90:\n        /* \"#utility.yul\":842:866   */\n      tag_110\n        /* \"#utility.yul\":860:865   */\n      dup2\n        /* \"#utility.yul\":842:866   */\n      tag_85\n      jump\t// in\n    tag_110:\n        /* \"#utility.yul\":835:840   */\n      dup2\n        /* \"#utility.yul\":832:867   */\n      eq\n        /* \"#utility.yul\":822:885   */\n      tag_111\n      jumpi\n        /* \"#utility.yul\":881:882   */\n      0x00\n        /* \"#utility.yul\":878:879   */\n      0x00\n        /* \"#utility.yul\":871:883   */\n      revert\n        /* \"#utility.yul\":822:885   */\n    tag_111:\n        /* \"#utility.yul\":769:891   */\n      pop\n      jump\t// out\n        /* \"#utility.yul\":897:1036   */\n    tag_91:\n        /* \"#utility.yul\":943:948   */\n      0x00\n        /* \"#utility.yul\":981:987   */\n      dup2\n        /* \"#utility.yul\":968:988   */\n      calldataload\n        /* \"#utility.yul\":959:988   */\n      swap1\n      pop\n        /* \"#utility.yul\":997:1030   */\n      tag_113\n        /* \"#utility.yul\":1024:1029   */\n      dup2\n        /* \"#utility.yul\":997:1030   */\n      tag_90\n      jump\t// in\n    tag_113:\n        /* \"#utility.yul\":897:1036   */\n      swap3\n      swap2\n      pop\n      pop\n      jump\t// out\n        /* \"#utility.yul\":1042:1371   */\n    tag_20:\n        /* \"#utility.yul\":1101:1107   */\n      0x00\n        /* \"#utility.yul\":1150:1152   */\n      0x20\n        /* \"#utility.yul\":1138:1147   */\n      dup3\n        /* \"#utility.yul\":1129:1136   */\n      dup5\n        /* \"#utility.yul\":1125:1148   */\n      sub\n        /* \"#utility.yul\":1121:1153   */\n      slt\n        /* \"#utility.yul\":1118:1237   */\n      iszero\n      tag_115\n      jumpi\n        /* \"#utility.yul\":1156:1235   */\n      tag_116\n      tag_88\n      jump\t// in\n    tag_116:\n        /* \"#utility.yul\":1118:1237   */\n    tag_115:\n        /* \"#utility.yul\":1276:1277   */\n      0x00\n        /* \"#utility.yul\":1301:1354   */\n      tag_117\n        /* \"#utility.yul\":1346:1353   */\n      dup5\n        /* \"#utility.yul\":1337:1343   */\n      dup3\n        /* \"#utility.yul\":1326:1335   */\n      dup6\n        /* \"#utility.yul\":1322:1344   */\n      add\n        /* \"#utility.yul\":1301:1354   */\n      tag_91\n      jump\t// in\n    tag_117:\n        /* \"#utility.yul\":1291:1354   */\n      swap2\n      pop\n        /* \"#utility.yul\":1247:1364   */\n      pop\n        /* \"#utility.yul\":1042:1371   */\n      swap3\n      swap2\n      pop\n      pop\n      jump\t// out\n        /* \"#utility.yul\":1377:1503   */\n    tag_92:\n        /* \"#utility.yul\":1414:1421   */\n      0x00\n        /* \"#utility.yul\":1454:1496   */\n      0xffffffffffffffffffffffffffffffffffffffff\n        /* \"#utility.yul\":1447:1452   */\n      dup3\n        /* \"#utility.yul\":1443:1497   */\n      and\n        /* \"#utility.yul\":1432:1497   */\n      swap1\n      pop\n        /* \"#utility.yul\":1377:1503   */\n      swap2\n      swap1\n      pop\n      jump\t// out\n        /* \"#utility.yul\":1509:1605   */\n    tag_93:\n        /* \"#utility.yul\":1546:1553   */\n      0x00\n        /* \"#utility.yul\":1575:1599   */\n      tag_120\n        /* \"#utility.yul\":1593:1598   */\n      dup3\n        /* \"#utility.yul\":1575:1599   */\n      tag_92\n      jump\t// in\n    tag_120:\n        /* \"#utility.yul\":1564:1599   */\n      swap1\n      pop\n        /* \"#utility.yul\":1509:1605   */\n      swap2\n      swap1\n      pop\n      jump\t// out\n        /* \"#utility.yul\":1611:1733   */\n    tag_94:\n        /* \"#utility.yul\":1684:1708   */\n      tag_122\n        /* \"#utility.yul\":1702:1707   */\n      dup2\n        /* \"#utility.yul\":1684:1708   */\n      tag_93\n      jump\t// in\n    tag_122:\n        /* \"#utility.yul\":1677:1682   */\n      dup2\n        /* \"#utility.yul\":1674:1709   */\n      eq\n        /* \"#utility.yul\":1664:1727   */\n      tag_123\n      jumpi\n        /* \"#utility.yul\":1723:1724   */\n      0x00\n        /* \"#utility.yul\":1720:1721   */\n      0x00\n        /* \"#utility.yul\":1713:1725   */\n      revert\n        /* \"#utility.yul\":1664:1727   */\n    tag_123:\n        /* \"#utility.yul\":1611:1733   */\n      pop\n      jump\t// out\n        /* \"#utility.yul\":1739:1878   */\n    tag_95:\n        /* \"#utility.yul\":1785:1790   */\n      0x00\n        /* \"#utility.yul\":1823:1829   */\n      dup2\n        /* \"#utility.yul\":1810:1830   */\n      calldataload\n        /* \"#utility.yul\":1801:1830   */\n      swap1\n      pop\n        /* \"#utility.yul\":1839:1872   */\n      tag_125\n        /* \"#utility.yul\":1866:1871   */\n      dup2\n        /* \"#utility.yul\":1839:1872   */\n      tag_94\n      jump\t// in\n    tag_125:\n        /* \"#utility.yul\":1739:1878   */\n      swap3\n      swap2\n      pop\n      pop\n      jump\t// out\n        /* \"#utility.yul\":1884:2213   */\n    tag_47:\n        /* \"#utility.yul\":1943:1949   */\n      0x00\n        /* \"#utility.yul\":1992:1994   */\n      0x20\n        /* \"#utility.yul\":1980:1989   */\n      dup3\n        /* \"#utility.yul\":1971:1978   */\n      dup5\n        /* \"#utility.yul\":1967:1990   */\n      sub\n        /* \"#utility.yul\":1963:1995   */\n      slt\n        /* \"#utility.yul\":1960:2079   */\n      iszero\n      tag_127\n      jumpi\n        /* \"#utility.yul\":1998:2077   */\n      tag_128\n      tag_88\n      jump\t// in\n    tag_128:\n        /* \"#utility.yul\":1960:2079   */\n    tag_127:\n        /* \"#utility.yul\":2118:2119   */\n      0x00\n        /* \"#utility.yul\":2143:2196   */\n      tag_129\n        /* \"#utility.yul\":2188:2195   */\n      dup5\n        /* \"#utility.yul\":2179:2185   */\n      dup3\n        /* \"#utility.yul\":2168:2177   */\n      dup6\n        /* \"#utility.yul\":2164:2186   */\n      add\n        /* \"#utility.yul\":2143:2196   */\n      tag_95\n      jump\t// in\n    tag_129:\n        /* \"#utility.yul\":2133:2196   */\n      swap2\n      pop\n        /* \"#utility.yul\":2089:2206   */\n      pop\n        /* \"#utility.yul\":1884:2213   */\n      swap3\n      swap2\n      pop\n      pop\n      jump\t// out\n        /* \"#utility.yul\":2219:2551   */\n    tag_55:\n        /* \"#utility.yul\":2340:2344   */\n      0x00\n        /* \"#utility.yul\":2378:2380   */\n      0x40\n        /* \"#utility.yul\":2367:2376   */\n      dup3\n        /* \"#utility.yul\":2363:2381   */\n      add\n        /* \"#utility.yul\":2355:2381   */\n      swap1\n      pop\n        /* \"#utility.yul\":2391:2462   */\n      tag_131\n        /* \"#utility.yul\":2459:2460   */\n      0x00\n        /* \"#utility.yul\":2448:2457   */\n      dup4\n        /* \"#utility.yul\":2444:2461   */\n      add\n        /* \"#utility.yul\":2435:2441   */\n      dup6\n        /* \"#utility.yul\":2391:2462   */\n      tag_86\n      jump\t// in\n    tag_131:\n        /* \"#utility.yul\":2472:2544   */\n      tag_132\n        /* \"#utility.yul\":2540:2542   */\n      0x20\n        /* \"#utility.yul\":2529:2538   */\n      dup4\n        /* \"#utility.yul\":2525:2543   */\n      add\n        /* \"#utility.yul\":2516:2522   */\n      dup5\n        /* \"#utility.yul\":2472:2544   */\n      tag_86\n      jump\t// in\n    tag_132:\n        /* \"#utility.yul\":2219:2551   */\n      swap4\n      swap3\n      pop\n      pop\n      pop\n      jump\t// out\n        /* \"#utility.yul\":2557:2737   */\n    tag_96:\n        /* \"#utility.yul\":2605:2682   */\n      0x4e487b7100000000000000000000000000000000000000000000000000000000\n        /* \"#utility.yul\":2602:2603   */\n      0x00\n        /* \"#utility.yul\":2595:2683   */\n      mstore\n        /* \"#utility.yul\":2702:2706   */\n      0x11\n        /* \"#utility.yul\":2699:2700   */\n      0x04\n        /* \"#utility.yul\":2692:2707   */\n      mstore\n        /* \"#utility.yul\":2726:2730   */\n      0x24\n        /* \"#utility.yul\":2723:2724   */\n      0x00\n        /* \"#utility.yul\":2716:2731   */\n      revert\n        /* \"#utility.yul\":2743:2937   */\n    tag_59:\n        /* \"#utility.yul\":2783:2787   */\n      0x00\n        /* \"#utility.yul\":2803:2823   */\n      tag_135\n        /* \"#utility.yul\":2821:2822   */\n      dup3\n        /* \"#utility.yul\":2803:2823   */\n      tag_85\n      jump\t// in\n    tag_135:\n        /* \"#utility.yul\":2798:2823   */\n      swap2\n      pop\n        /* \"#utility.yul\":2837:2857   */\n      tag_136\n        /* \"#utility.yul\":2855:2856   */\n      dup4\n        /* \"#utility.yul\":2837:2857   */\n      tag_85\n      jump\t// in\n    tag_136:\n        /* \"#utility.yul\":2832:2857   */\n      swap3\n      pop\n        /* \"#utility.yul\":2881:2882   */\n      dup3\n        /* \"#utility.yul\":2878:2879   */\n      dup3\n        /* \"#utility.yul\":2874:2883   */\n      sub\n        /* \"#utility.yul\":2866:2883   */\n      swap1\n      pop\n        /* \"#utility.yul\":2905:2906   */\n      dup2\n        /* \"#utility.yul\":2899:2903   */\n      dup2\n        /* \"#utility.yul\":2896:2907   */\n      gt\n        /* \"#utility.yul\":2893:2930   */\n      iszero\n      tag_137\n      jumpi\n        /* \"#utility.yul\":2910:2928   */\n      tag_138\n      tag_96\n      jump\t// in\n    tag_138:\n        /* \"#utility.yul\":2893:2930   */\n    tag_137:\n        /* \"#utility.yul\":2743:2937   */\n      swap3\n      swap2\n      pop\n      pop\n      jump\t// out\n        /* \"#utility.yul\":2943:3176   */\n    tag_62:\n        /* \"#utility.yul\":2982:2985   */\n      0x00\n        /* \"#utility.yul\":3005:3029   */\n      tag_140\n        /* \"#utility.yul\":3023:3028   */\n      dup3\n        /* \"#utility.yul\":3005:3029   */\n      tag_85\n      jump\t// in\n    tag_140:\n        /* \"#utility.yul\":2996:3029   */\n      swap2\n      pop\n        /* \"#utility.yul\":3051:3117   */\n      0xffffffffffffffffffffffffffffffffffffffffffffffffffffffffffffffff\n        /* \"#utility.yul\":3044:3049   */\n      dup3\n        /* \"#utility.yul\":3041:3118   */\n      sub\n        /* \"#utility.yul\":3038:3141   */\n      tag_141\n      jumpi\n        /* \"#utility.yul\":3121:3139   */\n      tag_142\n      tag_96\n      jump\t// in\n    tag_142:\n        /* \"#utility.yul\":3038:3141   */\n    tag_141:\n        /* \"#utility.yul\":3168:3169   */\n      0x01\n        /* \"#utility.yul\":3161:3166   */\n      dup3\n        /* \"#utility.yul\":3157:3170   */\n      add\n        /* \"#utility.yul\":3150:3170   */\n      swap1\n      pop\n        /* \"#utility.yul\":2943:3176   */\n      swap2\n      swap1\n      pop\n      jump\t// out\n        /* \"#utility.yul\":3182:3329   */\n    tag_97:\n        /* \"#utility.yul\":3283:3294   */\n      0x00\n        /* \"#utility.yul\":3320:3323   */\n      dup2\n        /* \"#utility.yul\":3305:3323   */\n      swap1\n      pop\n        /* \"#utility.yul\":3182:3329   */\n      swap3\n      swap2\n      pop\n      pop\n      jump\t// out\n        /* \"#utility.yul\":3335:3449   */\n    tag_98:\n      pop\n      jump\t// out\n        /* \"#utility.yul\":3455:3853   */\n    tag_99:\n        /* \"#utility.yul\":3614:3617   */\n      0x00\n        /* \"#utility.yul\":3635:3718   */\n      tag_146\n        /* \"#utility.yul\":3716:3717   */\n      0x00\n        /* \"#utility.yul\":3711:3714   */\n      dup4\n        /* \"#utility.yul\":3635:3718   */\n      tag_97\n      jump\t// in\n    tag_146:\n        /* \"#utility.yul\":3628:3718   */\n      swap2\n      pop\n        /* \"#utility.yul\":3727:3820   */\n      tag_147\n        /* \"#utility.yul\":3816:3819   */\n      dup3\n        /* \"#utility.yul\":3727:3820   */\n      tag_98\n      jump\t// in\n    tag_147:\n        /* \"#utility.yul\":3845:3846   */\n      0x00\n        /* \"#utility.yul\":3840:3843   */\n      dup3\n        /* \"#utility.yul\":3836:3847   */\n      add\n        /* \"#utility.yul\":3829:3847   */\n      swap1\n      pop\n        /* \"#utility.yul\":3455:3853   */\n      swap2\n      swap1\n      pop\n      jump\t// out\n        /* \"#utility.yul\":3859:4238   */\n    tag_64:\n        /* \"#utility.yul\":4043:4046   */\n      0x00\n        /* \"#utility.yul\":4065:4212   */\n      tag_149\n        /* \"#utility.yul\":4208:4211   */\n      dup3\n        /* \"#utility.yul\":4065:4212   */\n      tag_99\n      jump\t// in\n    tag_149:\n        /* \"#utility.yul\":4058:4212   */\n      swap2\n      pop\n        /* \"#utility.yul\":4229:4232   */\n      dup2\n        /* \"#utility.yul\":4222:4232   */\n      swap1\n      pop\n        /* \"#utility.yul\":3859:4238   */\n      swap2\n      swap1\n      pop\n      jump\t// out\n        /* \"#utility.yul\":4244:4435   */\n    tag_76:\n        /* \"#utility.yul\":4284:4287   */\n      0x00\n        /* \"#utility.yul\":4303:4323   */\n      tag_151\n        /* \"#utility.yul\":4321:4322   */\n      dup3\n        /* \"#utility.yul\":4303:4323   */\n      tag_85\n      jump\t// in\n    tag_151:\n        /* \"#utility.yul\":4298:4323   */\n      swap2\n      pop\n        /* \"#utility.yul\":4337:4357   */\n      tag_152\n        /* \"#utility.yul\":4355:4356   */\n      dup4\n        /* \"#utility.yul\":4337:4357   */\n      tag_85\n      jump\t// in\n    tag_152:\n        /* \"#utility.yul\":4332:4357   */\n      swap3\n      pop\n        /* \"#utility.yul\":4380:4381   */\n      dup3\n        /* \"#utility.yul\":4377:4378   */\n      dup3\n        /* \"#utility.yul\":4373:4382   */\n      add\n        /* \"#utility.yul\":4366:4382   */\n      swap1\n      pop\n        /* \"#utility.yul\":4401:4404   */\n      dup1\n        /* \"#utility.yul\":4398:4399   */\n      dup3\n        /* \"#utility.yul\":4395:4405   */\n      gt\n        /* \"#utility.yul\":4392:4428   */\n      iszero\n      tag_153\n      jumpi\n        /* \"#utility.yul\":4408:4426   */\n      tag_154\n      tag_96\n      jump\t// in\n    tag_154:\n        /* \"#utility.yul\":4392:4428   */\n    tag_153:\n        /* \"#utility.yul\":4244:4435   */\n      swap3\n      swap2\n      pop\n      pop\n      jump\t// out\n\n    auxdata: 0xa26469706673582212207331a7686024f4f27b3e4920872e897f77582064009b082bf76f35709d8ac53b64736f6c634300081e0033\n}\n",
				"bytecode": {
					"linkReferences": {},
					"object": "60c060405234801561000f575f5ffd5b50604051610aed380380610aed8339818101604052810190610031919061007f565b81608081815250508060a0818152505050506100bd565b5f5ffd5b5f819050919050565b61005e8161004c565b8114610068575f5ffd5b50565b5f8151905061007981610055565b92915050565b5f5f6040838503121561009557610094610048565b5b5f6100a28582860161006b565b92505060206100b38582860161006b565b9150509250929050565b60805160a0516109ec6101015f395f81816104f30152818161058c015281816105c301526106fd01525f81816102350152818161025e015261052e01526109ec5ff3fe608060405260043610610085575f3560e01c80637d882097116100585780637d8820971461012f5780637ddfe78d14610159578063d0e30db014610183578063ecbea24d1461018d578063f8b2cb4f146101b757610085565b80632dfdf0b5146100895780632e1a7d4d146100b3578063370dad80146100db57806371706cbe14610105575b5f5ffd5b348015610094575f5ffd5b5061009d6101f3565b6040516100aa919061077d565b60405180910390f35b3480156100be575f5ffd5b506100d960048036038101906100d491906107c4565b6101f9565b005b3480156100e6575f5ffd5b506100ef6104ee565b6040516100fc919061077d565b60405180910390f35b348015610110575f5ffd5b50610119610521565b604051610126919061077d565b60405180910390f35b34801561013a575f5ffd5b50610143610527565b604051610150919061077d565b60405180910390f35b348015610164575f5ffd5b5061016d61052c565b60405161017a919061077d565b60405180910390f35b61018b610550565b005b348015610198575f5ffd5b506101a16106fb565b6040516101ae919061077d565b60405180910390f35b3480156101c2575f5ffd5b506101dd60048036038101906101d89190610849565b61071f565b6040516101ea919061077d565b60405180910390f35b60015481565b805f8103610233576040517f1f2a200500000000000000000000000000000000000000000000000000000000815260040160405180910390fd5b7f00000000000000000000000000000000000000000000000000000000000000008211156102ba57817f00000000000000000000000000000000000000000000000000000000000000006040517fb945e2d80000000000000000000000000000000000000000000000000000000081526004016102b1929190610874565b60405180910390fd5b60035f3373ffffffffffffffffffffffffffffffffffffffff1673ffffffffffffffffffffffffffffffffffffffff1681526020019081526020015f205482111561037b578160035f3373ffffffffffffffffffffffffffffffffffffffff1673ffffffffffffffffffffffffffffffffffffffff1681526020019081526020015f20546040517fcf479181000000000000000000000000000000000000000000000000000000008152600401610372929190610874565b60405180910390fd5b8160035f3373ffffffffffffffffffffffffffffffffffffffff1673ffffffffffffffffffffffffffffffffffffffff1681526020019081526020015f205f8282546103c791906108c8565b92505081905550815f5f8282546103de91906108c8565b9250508190555060025f8154809291906103f7906108fb565b91905055505f3373ffffffffffffffffffffffffffffffffffffffff16836040516104219061096f565b5f6040518083038185875af1925050503d805f811461045b576040519150601f19603f3d011682016040523d82523d5f602084013e610460565b606091505b505090508061049b576040517f90b8ec1800000000000000000000000000000000000000000000000000000000815260040160405180910390fd5b3373ffffffffffffffffffffffffffffffffffffffff167f7fcf532c15f0a6db0bd6d0e038bea71d30d808c7d98cb3bf7268a95bf5081b65846040516104e1919061077d565b60405180910390a2505050565b5f5f547f000000000000000000000000000000000000000000000000000000000000000061051c91906108c8565b905090565b60025481565b5f5481565b7f000000000000000000000000000000000000000000000000000000000000000081565b345f810361058a576040517f1f2a200500000000000000000000000000000000000000000000000000000000815260040160405180910390fd5b7f0000000000000000000000000000000000000000000000000000000000000000345f546105b89190610983565b111561062957345f547f00000000000000000000000000000000000000000000000000000000000000006105ec91906108c8565b6040517f31728a05000000000000000000000000000000000000000000000000000000008152600401610620929190610874565b60405180910390fd5b3460035f3373ffffffffffffffffffffffffffffffffffffffff1673ffffffffffffffffffffffffffffffffffffffff1681526020019081526020015f205f8282546106759190610983565b92505081905550345f5f82825461068c9190610983565b9250508190555060015f8154809291906106a5906108fb565b91905055503373ffffffffffffffffffffffffffffffffffffffff167fe1fffcc4923d04b559f4d29a8bfc6cda04eb5b0d3c460751c2402c5c5cc9109c346040516106f0919061077d565b60405180910390a250565b7f000000000000000000000000000000000000000000000000000000000000000081565b5f60035f8373ffffffffffffffffffffffffffffffffffffffff1673ffffffffffffffffffffffffffffffffffffffff1681526020019081526020015f20549050919050565b5f819050919050565b61077781610765565b82525050565b5f6020820190506107905f83018461076e565b92915050565b5f5ffd5b6107a381610765565b81146107ad575f5ffd5b50565b5f813590506107be8161079a565b92915050565b5f602082840312156107d9576107d8610796565b5b5f6107e6848285016107b0565b91505092915050565b5f73ffffffffffffffffffffffffffffffffffffffff82169050919050565b5f610818826107ef565b9050919050565b6108288161080e565b8114610832575f5ffd5b50565b5f813590506108438161081f565b92915050565b5f6020828403121561085e5761085d610796565b5b5f61086b84828501610835565b91505092915050565b5f6040820190506108875f83018561076e565b610894602083018461076e565b9392505050565b7f4e487b71000000000000000000000000000000000000000000000000000000005f52601160045260245ffd5b5f6108d282610765565b91506108dd83610765565b92508282039050818111156108f5576108f461089b565b5b92915050565b5f61090582610765565b91507fffffffffffffffffffffffffffffffffffffffffffffffffffffffffffffffff82036109375761093661089b565b5b600182019050919050565b5f81905092915050565b50565b5f61095a5f83610942565b91506109658261094c565b5f82019050919050565b5f6109798261094f565b9150819050919050565b5f61098d82610765565b915061099883610765565b92508282019050808211156109b0576109af61089b565b5b9291505056fea26469706673582212207331a7686024f4f27b3e4920872e897f77582064009b082bf76f35709d8ac53b64736f6c634300081e0033",
					"opcodes": "PUSH1 0xC0 PUSH1 0x40 MSTORE CALLVALUE DUP1 ISZERO PUSH2 0xF JUMPI PUSH0 PUSH0 REVERT JUMPDEST POP PUSH1 0x40 MLOAD PUSH2 0xAED CODESIZE SUB DUP1 PUSH2 0xAED DUP4 CODECOPY DUP2 DUP2 ADD PUSH1 0x40 MSTORE DUP2 ADD SWAP1 PUSH2 0x31 SWAP2 SWAP1 PUSH2 0x7F JUMP JUMPDEST DUP2 PUSH1 0x80 DUP2 DUP2 MSTORE POP POP DUP1 PUSH1 0xA0 DUP2 DUP2 MSTORE POP POP POP POP PUSH2 0xBD JUMP JUMPDEST PUSH0 PUSH0 REVERT JUMPDEST PUSH0 DUP2 SWAP1 POP SWAP2 SWAP1 POP JUMP JUMPDEST PUSH2 0x5E DUP2 PUSH2 0x4C JUMP JUMPDEST DUP2 EQ PUSH2 0x68 JUMPI PUSH0 PUSH0 REVERT JUMPDEST POP JUMP JUMPDEST PUSH0 DUP2 MLOAD SWAP1 POP PUSH2 0x79 DUP2 PUSH2 0x55 JUMP JUMPDEST SWAP3 SWAP2 POP POP JUMP JUMPDEST PUSH0 PUSH0 PUSH1 0x40 DUP4 DUP6 SUB SLT ISZERO PUSH2 0x95 JUMPI PUSH2 0x94 PUSH2 0x48 JUMP JUMPDEST JUMPDEST PUSH0 PUSH2 0xA2 DUP6 DUP3 DUP7 ADD PUSH2 0x6B JUMP JUMPDEST SWAP3 POP POP PUSH1 0x20 PUSH2 0xB3 DUP6 DUP3 DUP7 ADD PUSH2 0x6B JUMP JUMPDEST SWAP2 POP POP SWAP3 POP SWAP3 SWAP1 POP JUMP JUMPDEST PUSH1 0x80 MLOAD PUSH1 0xA0 MLOAD PUSH2 0x9EC PUSH2 0x101 PUSH0 CODECOPY PUSH0 DUP2 DUP2 PUSH2 0x4F3 ADD MSTORE DUP2 DUP2 PUSH2 0x58C ADD MSTORE DUP2 DUP2 PUSH2 0x5C3 ADD MSTORE PUSH2 0x6FD ADD MSTORE PUSH0 DUP2 DUP2 PUSH2 0x235 ADD MSTORE DUP2 DUP2 PUSH2 0x25E ADD MSTORE PUSH2 0x52E ADD MSTORE PUSH2 0x9EC PUSH0 RETURN INVALID PUSH1 0x80 PUSH1 0x40 MSTORE PUSH1 0x4 CALLDATASIZE LT PUSH2 0x85 JUMPI PUSH0 CALLDATALOAD PUSH1 0xE0 SHR DUP1 PUSH4 0x7D882097 GT PUSH2 0x58 JUMPI DUP1 PUSH4 0x7D882097 EQ PUSH2 0x12F JUMPI DUP1 PUSH4 0x7DDFE78D EQ PUSH2 0x159 JUMPI DUP1 PUSH4 0xD0E30DB0 EQ PUSH2 0x183 JUMPI DUP1 PUSH4 0xECBEA24D EQ PUSH2 0x18D JUMPI DUP1 PUSH4 0xF8B2CB4F EQ PUSH2 0x1B7 JUMPI PUSH2 0x85 JUMP JUMPDEST DUP1 PUSH4 0x2DFDF0B5 EQ PUSH2 0x89 JUMPI DUP1 PUSH4 0x2E1A7D4D EQ PUSH2 0xB3 JUMPI DUP1 PUSH4 0x370DAD80 EQ PUSH2 0xDB JUMPI DUP1 PUSH4 0x71706CBE EQ PUSH2 0x105 JUMPI JUMPDEST PUSH0 PUSH0 REVERT JUMPDEST CALLVALUE DUP1 ISZERO PUSH2 0x94 JUMPI PUSH0 PUSH0 REVERT JUMPDEST POP PUSH2 0x9D PUSH2 0x1F3 JUMP JUMPDEST PUSH1 0x40 MLOAD PUSH2 0xAA SWAP2 SWAP1 PUSH2 0x77D JUMP JUMPDEST PUSH1 0x40 MLOAD DUP1 SWAP2 SUB SWAP1 RETURN JUMPDEST CALLVALUE DUP1 ISZERO PUSH2 0xBE JUMPI PUSH0 PUSH0 REVERT JUMPDEST POP PUSH2 0xD9 PUSH1 0x4 DUP1 CALLDATASIZE SUB DUP2 ADD SWAP1 PUSH2 0xD4 SWAP2 SWAP1 PUSH2 0x7C4 JUMP JUMPDEST PUSH2 0x1F9 JUMP JUMPDEST STOP JUMPDEST CALLVALUE DUP1 ISZERO PUSH2 0xE6 JUMPI PUSH0 PUSH0 REVERT JUMPDEST POP PUSH2 0xEF PUSH2 0x4EE JUMP JUMPDEST PUSH1 0x40 MLOAD PUSH2 0xFC SWAP2 SWAP1 PUSH2 0x77D JUMP JUMPDEST PUSH1 0x40 MLOAD DUP1 SWAP2 SUB SWAP1 RETURN JUMPDEST CALLVALUE DUP1 ISZERO PUSH2 0x110 JUMPI PUSH0 PUSH0 REVERT JUMPDEST POP PUSH2 0x119 PUSH2 0x521 JUMP JUMPDEST PUSH1 0x40 MLOAD PUSH2 0x126 SWAP2 SWAP1 PUSH2 0x77D JUMP JUMPDEST PUSH1 0x40 MLOAD DUP1 SWAP2 SUB SWAP1 RETURN JUMPDEST CALLVALUE DUP1 ISZERO PUSH2 0x13A JUMPI PUSH0 PUSH0 REVERT JUMPDEST POP PUSH2 0x143 PUSH2 0x527 JUMP JUMPDEST PUSH1 0x40 MLOAD PUSH2 0x150 SWAP2 SWAP1 PUSH2 0x77D JUMP JUMPDEST PUSH1 0x40 MLOAD DUP1 SWAP2 SUB SWAP1 RETURN JUMPDEST CALLVALUE DUP1 ISZERO PUSH2 0x164 JUMPI PUSH0 PUSH0 REVERT JUMPDEST POP PUSH2 0x16D PUSH2 0x52C JUMP JUMPDEST PUSH1 0x40 MLOAD PUSH2 0x17A SWAP2 SWAP1 PUSH2 0x77D JUMP JUMPDEST PUSH1 0x40 MLOAD DUP1 SWAP2 SUB SWAP1 RETURN JUMPDEST PUSH2 0x18B PUSH2 0x550 JUMP JUMPDEST STOP JUMPDEST CALLVALUE DUP1 ISZERO PUSH2 0x198 JUMPI PUSH0 PUSH0 REVERT JUMPDEST POP PUSH2 0x1A1 PUSH2 0x6FB JUMP JUMPDEST PUSH1 0x40 MLOAD PUSH2 0x1AE SWAP2 SWAP1 PUSH2 0x77D JUMP JUMPDEST PUSH1 0x40 MLOAD DUP1 SWAP2 SUB SWAP1 RETURN JUMPDEST CALLVALUE DUP1 ISZERO PUSH2 0x1C2 JUMPI PUSH0 PUSH0 REVERT JUMPDEST POP PUSH2 0x1DD PUSH1 0x4 DUP1 CALLDATASIZE SUB DUP2 ADD SWAP1 PUSH2 0x1D8 SWAP2 SWAP1 PUSH2 0x849 JUMP JUMPDEST PUSH2 0x71F JUMP JUMPDEST PUSH1 0x40 MLOAD PUSH2 0x1EA SWAP2 SWAP1 PUSH2 0x77D JUMP JUMPDEST PUSH1 0x40 MLOAD DUP1 SWAP2 SUB SWAP1 RETURN JUMPDEST PUSH1 0x1 SLOAD DUP2 JUMP JUMPDEST DUP1 PUSH0 DUP2 SUB PUSH2 0x233 JUMPI PUSH1 0x40 MLOAD PUSH32 0x1F2A200500000000000000000000000000000000000000000000000000000000 DUP2 MSTORE PUSH1 0x4 ADD PUSH1 0x40 MLOAD DUP1 SWAP2 SUB SWAP1 REVERT JUMPDEST PUSH32 0x0 DUP3 GT ISZERO PUSH2 0x2BA JUMPI DUP2 PUSH32 0x0 PUSH1 0x40 MLOAD PUSH32 0xB945E2D800000000000000000000000000000000000000000000000000000000 DUP2 MSTORE PUSH1 0x4 ADD PUSH2 0x2B1 SWAP3 SWAP2 SWAP1 PUSH2 0x874 JUMP JUMPDEST PUSH1 0x40 MLOAD DUP1 SWAP2 SUB SWAP1 REVERT JUMPDEST PUSH1 0x3 PUSH0 CALLER PUSH20 0xFFFFFFFFFFFFFFFFFFFFFFFFFFFFFFFFFFFFFFFF AND PUSH20 0xFFFFFFFFFFFFFFFFFFFFFFFFFFFFFFFFFFFFFFFF AND DUP2 MSTORE PUSH1 0x20 ADD SWAP1 DUP2 MSTORE PUSH1 0x20 ADD PUSH0 KECCAK256 SLOAD DUP3 GT ISZERO PUSH2 0x37B JUMPI DUP2 PUSH1 0x3 PUSH0 CALLER PUSH20 0xFFFFFFFFFFFFFFFFFFFFFFFFFFFFFFFFFFFFFFFF AND PUSH20 0xFFFFFFFFFFFFFFFFFFFFFFFFFFFFFFFFFFFFFFFF AND DUP2 MSTORE PUSH1 0x20 ADD SWAP1 DUP2 MSTORE PUSH1 0x20 ADD PUSH0 KECCAK256 SLOAD PUSH1 0x40 MLOAD PUSH32 0xCF47918100000000000000000000000000000000000000000000000000000000 DUP2 MSTORE PUSH1 0x4 ADD PUSH2 0x372 SWAP3 SWAP2 SWAP1 PUSH2 0x874 JUMP JUMPDEST PUSH1 0x40 MLOAD DUP1 SWAP2 SUB SWAP1 REVERT JUMPDEST DUP2 PUSH1 0x3 PUSH0 CALLER PUSH20 0xFFFFFFFFFFFFFFFFFFFFFFFFFFFFFFFFFFFFFFFF AND PUSH20 0xFFFFFFFFFFFFFFFFFFFFFFFFFFFFFFFFFFFFFFFF AND DUP2 MSTORE PUSH1 0x20 ADD SWAP1 DUP2 MSTORE PUSH1 0x20 ADD PUSH0 KECCAK256 PUSH0 DUP3 DUP3 SLOAD PUSH2 0x3C7 SWAP2 SWAP1 PUSH2 0x8C8 JUMP JUMPDEST SWAP3 POP POP DUP2 SWAP1 SSTORE POP DUP2 PUSH0 PUSH0 DUP3 DUP3 SLOAD PUSH2 0x3DE SWAP2 SWAP1 PUSH2 0x8C8 JUMP JUMPDEST SWAP3 POP POP DUP2 SWAP1 SSTORE POP PUSH1 0x2 PUSH0 DUP2 SLOAD DUP1 SWAP3 SWAP2 SWAP1 PUSH2 0x3F7 SWAP1 PUSH2 0x8FB JUMP JUMPDEST SWAP2 SWAP1 POP SSTORE POP PUSH0 CALLER PUSH20 0xFFFFFFFFFFFFFFFFFFFFFFFFFFFFFFFFFFFFFFFF AND DUP4 PUSH1 0x40 MLOAD PUSH2 0x421 SWAP1 PUSH2 0x96F JUMP JUMPDEST PUSH0 PUSH1 0x40 MLOAD DUP1 DUP4 SUB DUP2 DUP6 DUP8 GAS CALL SWAP3 POP POP POP RETURNDATASIZE DUP1 PUSH0 DUP2 EQ PUSH2 0x45B JUMPI PUSH1 0x40 MLOAD SWAP2 POP PUSH1 0x1F NOT PUSH1 0x3F RETURNDATASIZE ADD AND DUP3 ADD PUSH1 0x40 MSTORE RETURNDATASIZE DUP3 MSTORE RETURNDATASIZE PUSH0 PUSH1 0x20 DUP5 ADD RETURNDATACOPY PUSH2 0x460 JUMP JUMPDEST PUSH1 0x60 SWAP2 POP JUMPDEST POP POP SWAP1 POP DUP1 PUSH2 0x49B JUMPI PUSH1 0x40 MLOAD PUSH32 0x90B8EC1800000000000000000000000000000000000000000000000000000000 DUP2 MSTORE PUSH1 0x4 ADD PUSH1 0x40 MLOAD DUP1 SWAP2 SUB SWAP1 REVERT JUMPDEST CALLER PUSH20 0xFFFFFFFFFFFFFFFFFFFFFFFFFFFFFFFFFFFFFFFF AND PUSH32 0x7FCF532C15F0A6DB0BD6D0E038BEA71D30D808C7D98CB3BF7268A95BF5081B65 DUP5 PUSH1 0x40 MLOAD PUSH2 0x4E1 SWAP2 SWAP1 PUSH2 0x77D JUMP JUMPDEST PUSH1 0x40 MLOAD DUP1 SWAP2 SUB SWAP1 LOG2 POP POP POP JUMP JUMPDEST PUSH0 PUSH0 SLOAD PUSH32 0x0 PUSH2 0x51C SWAP2 SWAP1 PUSH2 0x8C8 JUMP JUMPDEST SWAP1 POP SWAP1 JUMP JUMPDEST PUSH1 0x2 SLOAD DUP2 JUMP JUMPDEST PUSH0 SLOAD DUP2 JUMP JUMPDEST PUSH32 0x0 DUP2 JUMP JUMPDEST CALLVALUE PUSH0 DUP2 SUB PUSH2 0x58A JUMPI PUSH1 0x40 MLOAD PUSH32 0x1F2A200500000000000000000000000000000000000000000000000000000000 DUP2 MSTORE PUSH1 0x4 ADD PUSH1 0x40 MLOAD DUP1 SWAP2 SUB SWAP1 REVERT JUMPDEST PUSH32 0x0 CALLVALUE PUSH0 SLOAD PUSH2 0x5B8 SWAP2 SWAP1 PUSH2 0x983 JUMP JUMPDEST GT ISZERO PUSH2 0x629 JUMPI CALLVALUE PUSH0 SLOAD PUSH32 0x0 PUSH2 0x5EC SWAP2 SWAP1 PUSH2 0x8C8 JUMP JUMPDEST PUSH1 0x40 MLOAD PUSH32 0x31728A0500000000000000000000000000000000000000000000000000000000 DUP2 MSTORE PUSH1 0x4 ADD PUSH2 0x620 SWAP3 SWAP2 SWAP1 PUSH2 0x874 JUMP JUMPDEST PUSH1 0x40 MLOAD DUP1 SWAP2 SUB SWAP1 REVERT JUMPDEST CALLVALUE PUSH1 0x3 PUSH0 CALLER PUSH20 0xFFFFFFFFFFFFFFFFFFFFFFFFFFFFFFFFFFFFFFFF AND PUSH20 0xFFFFFFFFFFFFFFFFFFFFFFFFFFFFFFFFFFFFFFFF AND DUP2 MSTORE PUSH1 0x20 ADD SWAP1 DUP2 MSTORE PUSH1 0x20 ADD PUSH0 KECCAK256 PUSH0 DUP3 DUP3 SLOAD PUSH2 0x675 SWAP2 SWAP1 PUSH2 0x983 JUMP JUMPDEST SWAP3 POP POP DUP2 SWAP1 SSTORE POP CALLVALUE PUSH0 PUSH0 DUP3 DUP3 SLOAD PUSH2 0x68C SWAP2 SWAP1 PUSH2 0x983 JUMP JUMPDEST SWAP3 POP POP DUP2 SWAP1 SSTORE POP PUSH1 0x1 PUSH0 DUP2 SLOAD DUP1 SWAP3 SWAP2 SWAP1 PUSH2 0x6A5 SWAP1 PUSH2 0x8FB JUMP JUMPDEST SWAP2 SWAP1 POP SSTORE POP CALLER PUSH20 0xFFFFFFFFFFFFFFFFFFFFFFFFFFFFFFFFFFFFFFFF AND PUSH32 0xE1FFFCC4923D04B559F4D29A8BFC6CDA04EB5B0D3C460751C2402C5C5CC9109C CALLVALUE PUSH1 0x40 MLOAD PUSH2 0x6F0 SWAP2 SWAP1 PUSH2 0x77D JUMP JUMPDEST PUSH1 0x40 MLOAD DUP1 SWAP2 SUB SWAP1 LOG2 POP JUMP JUMPDEST PUSH32 0x0 DUP2 JUMP JUMPDEST PUSH0 PUSH1 0x3 PUSH0 DUP4 PUSH20 0xFFFFFFFFFFFFFFFFFFFFFFFFFFFFFFFFFFFFFFFF AND PUSH20 0xFFFFFFFFFFFFFFFFFFFFFFFFFFFFFFFFFFFFFFFF AND DUP2 MSTORE PUSH1 0x20 ADD SWAP1 DUP2 MSTORE PUSH1 0x20 ADD PUSH0 KECCAK256 SLOAD SWAP1 POP SWAP2 SWAP1 POP JUMP JUMPDEST PUSH0 DUP2 SWAP1 POP SWAP2 SWAP1 POP JUMP JUMPDEST PUSH2 0x777 DUP2 PUSH2 0x765 JUMP JUMPDEST DUP3 MSTORE POP POP JUMP JUMPDEST PUSH0 PUSH1 0x20 DUP3 ADD SWAP1 POP PUSH2 0x790 PUSH0 DUP4 ADD DUP5 PUSH2 0x76E JUMP JUMPDEST SWAP3 SWAP2 POP POP JUMP JUMPDEST PUSH0 PUSH0 REVERT JUMPDEST PUSH2 0x7A3 DUP2 PUSH2 0x765 JUMP JUMPDEST DUP2 EQ PUSH2 0x7AD JUMPI PUSH0 PUSH0 REVERT JUMPDEST POP JUMP JUMPDEST PUSH0 DUP2 CALLDATALOAD SWAP1 POP PUSH2 0x7BE DUP2 PUSH2 0x79A JUMP JUMPDEST SWAP3 SWAP2 POP POP JUMP JUMPDEST PUSH0 PUSH1 0x20 DUP3 DUP5 SUB SLT ISZERO PUSH2 0x7D9 JUMPI PUSH2 0x7D8 PUSH2 0x796 JUMP JUMPDEST JUMPDEST PUSH0 PUSH2 0x7E6 DUP5 DUP3 DUP6 ADD PUSH2 0x7B0 JUMP JUMPDEST SWAP2 POP POP SWAP3 SWAP2 POP POP JUMP JUMPDEST PUSH0 PUSH20 0xFFFFFFFFFFFFFFFFFFFFFFFFFFFFFFFFFFFFFFFF DUP3 AND SWAP1 POP SWAP2 SWAP1 POP JUMP JUMPDEST PUSH0 PUSH2 0x818 DUP3 PUSH2 0x7EF JUMP JUMPDEST SWAP1 POP SWAP2 SWAP1 POP JUMP JUMPDEST PUSH2 0x828 DUP2 PUSH2 0x80E JUMP JUMPDEST DUP2 EQ PUSH2 0x832 JUMPI PUSH0 PUSH0 REVERT JUMPDEST POP JUMP JUMPDEST PUSH0 DUP2 CALLDATALOAD SWAP1 POP PUSH2 0x843 DUP2 PUSH2 0x81F JUMP JUMPDEST SWAP3 SWAP2 POP POP JUMP JUMPDEST PUSH0 PUSH1 0x20 DUP3 DUP5 SUB SLT ISZERO PUSH2 0x85E JUMPI PUSH2 0x85D PUSH2 0x796 JUMP JUMPDEST JUMPDEST PUSH0 PUSH2 0x86B DUP5 DUP3 DUP6 ADD PUSH2 0x835 JUMP JUMPDEST SWAP2 POP POP SWAP3 SWAP2 POP POP JUMP JUMPDEST PUSH0 PUSH1 0x40 DUP3 ADD SWAP1 POP PUSH2 0x887 PUSH0 DUP4 ADD DUP6 PUSH2 0x76E JUMP JUMPDEST PUSH2 0x894 PUSH1 0x20 DUP4 ADD DUP5 PUSH2 0x76E JUMP JUMPDEST SWAP4 SWAP3 POP POP POP JUMP JUMPDEST PUSH32 0x4E487B7100000000000000000000000000000000000000000000000000000000 PUSH0 MSTORE PUSH1 0x11 PUSH1 0x4 MSTORE PUSH1 0x24 PUSH0 REVERT JUMPDEST PUSH0 PUSH2 0x8D2 DUP3 PUSH2 0x765 JUMP JUMPDEST SWAP2 POP PUSH2 0x8DD DUP4 PUSH2 0x765 JUMP JUMPDEST SWAP3 POP DUP3 DUP3 SUB SWAP1 POP DUP2 DUP2 GT ISZERO PUSH2 0x8F5 JUMPI PUSH2 0x8F4 PUSH2 0x89B JUMP JUMPDEST JUMPDEST SWAP3 SWAP2 POP POP JUMP JUMPDEST PUSH0 PUSH2 0x905 DUP3 PUSH2 0x765 JUMP JUMPDEST SWAP2 POP PUSH32 0xFFFFFFFFFFFFFFFFFFFFFFFFFFFFFFFFFFFFFFFFFFFFFFFFFFFFFFFFFFFFFFFF DUP3 SUB PUSH2 0x937 JUMPI PUSH2 0x936 PUSH2 0x89B JUMP JUMPDEST JUMPDEST PUSH1 0x1 DUP3 ADD SWAP1 POP SWAP2 SWAP1 POP JUMP JUMPDEST PUSH0 DUP2 SWAP1 POP SWAP3 SWAP2 POP POP JUMP JUMPDEST POP JUMP JUMPDEST PUSH0 PUSH2 0x95A PUSH0 DUP4 PUSH2 0x942 JUMP JUMPDEST SWAP2 POP PUSH2 0x965 DUP3 PUSH2 0x94C JUMP JUMPDEST PUSH0 DUP3 ADD SWAP1 POP SWAP2 SWAP1 POP JUMP JUMPDEST PUSH0 PUSH2 0x979 DUP3 PUSH2 0x94F JUMP JUMPDEST SWAP2 POP DUP2 SWAP1 POP SWAP2 SWAP1 POP JUMP JUMPDEST PUSH0 PUSH2 0x98D DUP3 PUSH2 0x765 JUMP JUMPDEST SWAP2 POP PUSH2 0x998 DUP4 PUSH2 0x765 JUMP JUMPDEST SWAP3 POP DUP3 DUP3 ADD SWAP1 POP DUP1 DUP3 GT ISZERO PUSH2 0x9B0 JUMPI PUSH2 0x9AF PUSH2 0x89B JUMP JUMPDEST JUMPDEST SWAP3 SWAP2 POP POP JUMP INVALID LOG2 PUSH5 0x6970667358 0x22 SLT KECCAK256 PUSH20 0x31A7686024F4F27B3E4920872E897F7758206400 SWAP12 ADDMOD 0x2B 0xF7 PUSH16 0x35709D8AC53B64736F6C634300081E00 CALLER "
				},
				"gasEstimates": {
					"creation": {
						"codeDepositCost": "508000",
						"executionCost": "infinite",
						"totalCost": "infinite"
					},
					"external": {
						"bankCap()": "infinite",
						"deposit()": "infinite",
						"depositCount()": "2426",
						"getAvailableCapacity()": "infinite",
						"getBalance(address)": "2917",
						"totalDeposits()": "2424",
						"withdraw(uint256)": "infinite",
						"withdrawalCount()": "2492",
						"withdrawalLimit()": "infinite"
					},
					"internal": {
						"_hasEnoughBalance(address,uint256)": "infinite"
					}
				},
				"methodIdentifiers": {
					"bankCap()": "ecbea24d",
					"deposit()": "d0e30db0",
					"depositCount()": "2dfdf0b5",
					"getAvailableCapacity()": "370dad80",
					"getBalance(address)": "f8b2cb4f",
					"totalDeposits()": "7d882097",
					"withdraw(uint256)": "2e1a7d4d",
					"withdrawalCount()": "71706cbe",
					"withdrawalLimit()": "7ddfe78d"
				}
			},
			"storageLayout": {
				"storage": [
					{
						"astId": 11,
						"contract": "contracts/kipubank.sol:KipuBank",
						"label": "totalDeposits",
						"offset": 0,
						"slot": "0",
						"type": "t_uint256"
					},
					{
						"astId": 14,
						"contract": "contracts/kipubank.sol:KipuBank",
						"label": "depositCount",
						"offset": 0,
						"slot": "1",
						"type": "t_uint256"
					},
					{
						"astId": 17,
						"contract": "contracts/kipubank.sol:KipuBank",
						"label": "withdrawalCount",
						"offset": 0,
						"slot": "2",
						"type": "t_uint256"
					},
					{
						"astId": 22,
						"contract": "contracts/kipubank.sol:KipuBank",
						"label": "userBalances",
						"offset": 0,
						"slot": "3",
						"type": "t_mapping(t_address,t_uint256)"
					}
				],
				"types": {
					"t_address": {
						"encoding": "inplace",
						"label": "address",
						"numberOfBytes": "20"
					},
					"t_mapping(t_address,t_uint256)": {
						"encoding": "mapping",
						"key": "t_address",
						"label": "mapping(address => uint256)",
						"numberOfBytes": "32",
						"value": "t_uint256"
					},
					"t_uint256": {
						"encoding": "inplace",
						"label": "uint256",
						"numberOfBytes": "32"
					}
				}
			},
			"userdoc": {
				"errors": {
					"BankCapExceeded(uint256,uint256)": [
						{
							"notice": "Error thrown when deposit would exceed bank capacity"
						}
					],
					"InsufficientBalance(uint256,uint256)": [
						{
							"notice": "Error thrown when user tries to withdraw more than their balance"
						}
					],
					"TransferFailed()": [
						{
							"notice": "Error thrown when a transfer fails"
						}
					],
					"WithdrawalLimitExceeded(uint256,uint256)": [
						{
							"notice": "Error thrown when withdrawal amount exceeds the limit"
						}
					],
					"ZeroAmount()": [
						{
							"notice": "Error thrown when zero amount is provided"
						}
					]
				},
				"events": {
					"Deposit(address,uint256)": {
						"notice": "Event emitted when a user deposits ETH"
					},
					"Withdrawal(address,uint256)": {
						"notice": "Event emitted when a user withdraws ETH"
					}
				},
				"kind": "user",
				"methods": {
					"bankCap()": {
						"notice": "Maximum total amount that can be deposited in the bank"
					},
					"constructor": {
						"notice": "Constructor to initialize the bank with limits"
					},
					"deposit()": {
						"notice": "Allows users to deposit ETH into their personal vault"
					},
					"depositCount()": {
						"notice": "Total number of deposit transactions processed"
					},
					"getAvailableCapacity()": {
						"notice": "Get the available capacity in the bank"
					},
					"getBalance(address)": {
						"notice": "Get the balance of a specific user"
					},
					"totalDeposits()": {
						"notice": "Current total balance of all deposits in the bank"
					},
					"withdraw(uint256)": {
						"notice": "Allows users to withdraw ETH from their personal vault"
					},
					"withdrawalCount()": {
						"notice": "Total number of withdrawal transactions processed"
					},
					"withdrawalLimit()": {
						"notice": "Maximum amount that can be withdrawn in a single transaction"
					}
				},
				"notice": "A simple bank contract that allows users to deposit and withdraw ETH",
				"version": 1
			}
		}
	}
}