{
	"data": {
		"bytecode": {
			"linkReferences": {},
			"object": "60c060405234801561000f575f5ffd5b50604051610aed380380610aed8339818101604052810190610031919061007f565b81608081815250508060a0818152505050506100bd565b5f5ffd5b5f819050919050565b61005e8161004c565b8114610068575f5ffd5b50565b5f8151905061007981610055565b92915050565b5f5f6040838503121561009557610094610048565b5b5f6100a28582860161006b565b92505060206100b38582860161006b565b9150509250929050565b60805160a0516109ec6101015f395f81816104f30152818161058c015281816105c301526106fd01525f81816102350152818161025e015261052e01526109ec5ff3fe608060405260043610610085575f3560e01c80637d882097116100585780637d8820971461012f5780637ddfe78d14610159578063d0e30db014610183578063ecbea24d1461018d578063f8b2cb4f146101b757610085565b80632dfdf0b5146100895780632e1a7d4d146100b3578063370dad80146100db57806371706cbe14610105575b5f5ffd5b348015610094575f5ffd5b5061009d6101f3565b6040516100aa919061077d565b60405180910390f35b3480156100be575f5ffd5b506100d960048036038101906100d491906107c4565b6101f9565b005b3480156100e6575f5ffd5b506100ef6104ee565b6040516100fc919061077d565b60405180910390f35b348015610110575f5ffd5b50610119610521565b604051610126919061077d565b60405180910390f35b34801561013a575f5ffd5b50610143610527565b604051610150919061077d565b60405180910390f35b348015610164575f5ffd5b5061016d61052c565b60405161017a919061077d565b60405180910390f35b61018b610550565b005b348015610198575f5ffd5b506101a16106fb565b6040516101ae919061077d565b60405180910390f35b3480156101c2575f5ffd5b506101dd60048036038101906101d89190610849565b61071f565b6040516101ea919061077d565b60405180910390f35b60015481565b805f8103610233576040517f1f2a200500000000000000000000000000000000000000000000000000000000815260040160405180910390fd5b7f00000000000000000000000000000000000000000000000000000000000000008211156102ba57817f00000000000000000000000000000000000000000000000000000000000000006040517fb945e2d80000000000000000000000000000000000000000000000000000000081526004016102b1929190610874565b60405180910390fd5b60035f3373ffffffffffffffffffffffffffffffffffffffff1673ffffffffffffffffffffffffffffffffffffffff1681526020019081526020015f205482111561037b578160035f3373ffffffffffffffffffffffffffffffffffffffff1673ffffffffffffffffffffffffffffffffffffffff1681526020019081526020015f20546040517fcf479181000000000000000000000000000000000000000000000000000000008152600401610372929190610874565b60405180910390fd5b8160035f3373ffffffffffffffffffffffffffffffffffffffff1673ffffffffffffffffffffffffffffffffffffffff1681526020019081526020015f205f8282546103c791906108c8565b92505081905550815f5f8282546103de91906108c8565b9250508190555060025f8154809291906103f7906108fb565b91905055505f3373ffffffffffffffffffffffffffffffffffffffff16836040516104219061096f565b5f6040518083038185875af1925050503d805f811461045b576040519150601f19603f3d011682016040523d82523d5f602084013e610460565b606091505b505090508061049b576040517f90b8ec1800000000000000000000000000000000000000000000000000000000815260040160405180910390fd5b3373ffffffffffffffffffffffffffffffffffffffff167f7fcf532c15f0a6db0bd6d0e038bea71d30d808c7d98cb3bf7268a95bf5081b65846040516104e1919061077d565b60405180910390a2505050565b5f5f547f000000000000000000000000000000000000000000000000000000000000000061051c91906108c8565b905090565b60025481565b5f5481565b7f000000000000000000000000000000000000000000000000000000000000000081565b345f810361058a576040517f1f2a200500000000000000000000000000000000000000000000000000000000815260040160405180910390fd5b7f0000000000000000000000000000000000000000000000000000000000000000345f546105b89190610983565b111561062957345f547f00000000000000000000000000000000000000000000000000000000000000006105ec91906108c8565b6040517f31728a05000000000000000000000000000000000000000000000000000000008152600401610620929190610874565b60405180910390fd5b3460035f3373ffffffffffffffffffffffffffffffffffffffff1673ffffffffffffffffffffffffffffffffffffffff1681526020019081526020015f205f8282546106759190610983565b92505081905550345f5f82825461068c9190610983565b9250508190555060015f8154809291906106a5906108fb565b91905055503373ffffffffffffffffffffffffffffffffffffffff167fe1fffcc4923d04b559f4d29a8bfc6cda04eb5b0d3c460751c2402c5c5cc9109c346040516106f0919061077d565b60405180910390a250565b7f000000000000000000000000000000000000000000000000000000000000000081565b5f60035f8373ffffffffffffffffffffffffffffffffffffffff1673ffffffffffffffffffffffffffffffffffffffff1681526020019081526020015f20549050919050565b5f819050919050565b61077781610765565b82525050565b5f6020820190506107905f83018461076e565b92915050565b5f5ffd5b6107a381610765565b81146107ad575f5ffd5b50565b5f813590506107be8161079a565b92915050565b5f602082840312156107d9576107d8610796565b5b5f6107e6848285016107b0565b91505092915050565b5f73ffffffffffffffffffffffffffffffffffffffff82169050919050565b5f610818826107ef565b9050919050565b6108288161080e565b8114610832575f5ffd5b50565b5f813590506108438161081f565b92915050565b5f6020828403121561085e5761085d610796565b5b5f61086b84828501610835565b91505092915050565b5f6040820190506108875f83018561076e565b610894602083018461076e565b9392505050565b7f4e487b71000000000000000000000000000000000000000000000000000000005f52601160045260245ffd5b5f6108d282610765565b91506108dd83610765565b92508282039050818111156108f5576108f461089b565b5b92915050565b5f61090582610765565b91507fffffffffffffffffffffffffffffffffffffffffffffffffffffffffffffffff82036109375761093661089b565b5b600182019050919050565b5f81905092915050565b50565b5f61095a5f83610942565b91506109658261094c565b5f82019050919050565b5f6109798261094f565b9150819050919050565b5f61098d82610765565b915061099883610765565b92508282019050808211156109b0576109af61089b565b5b9291505056fea26469706673582212207331a7686024f4f27b3e4920872e897f77582064009b082bf76f35709d8ac53b64736f6c634300081e0033",
			"opcodes": "PUSH1 0xC0 PUSH1 0x40 MSTORE CALLVALUE DUP1 ISZERO PUSH2 0xF JUMPI PUSH0 PUSH0 REVERT JUMPDEST POP PUSH1 0x40 MLOAD PUSH2 0xAED CODESIZE SUB DUP1 PUSH2 0xAED DUP4 CODECOPY DUP2 DUP2 ADD PUSH1 0x40 MSTORE DUP2 ADD SWAP1 PUSH2 0x31 SWAP2 SWAP1 PUSH2 0x7F JUMP JUMPDEST DUP2 PUSH1 0x80 DUP2 DUP2 MSTORE POP POP DUP1 PUSH1 0xA0 DUP2 DUP2 MSTORE POP POP POP POP PUSH2 0xBD JUMP JUMPDEST PUSH0 PUSH0 REVERT JUMPDEST PUSH0 DUP2 SWAP1 POP SWAP2 SWAP1 POP JUMP JUMPDEST PUSH2 0x5E DUP2 PUSH2 0x4C JUMP JUMPDEST DUP2 EQ PUSH2 0x68 JUMPI PUSH0 PUSH0 REVERT JUMPDEST POP JUMP JUMPDEST PUSH0 DUP2 MLOAD SWAP1 POP PUSH2 0x79 DUP2 PUSH2 0x55 JUMP JUMPDEST SWAP3 SWAP2 POP POP JUMP JUMPDEST PUSH0 PUSH0 PUSH1 0x40 DUP4 DUP6 SUB SLT ISZERO PUSH2 0x95 JUMPI PUSH2 0x94 PUSH2 0x48 JUMP JUMPDEST JUMPDEST PUSH0 PUSH2 0xA2 DUP6 DUP3 DUP7 ADD PUSH2 0x6B JUMP JUMPDEST SWAP3 POP POP PUSH1 0x20 PUSH2 0xB3 DUP6 DUP3 DUP7 ADD PUSH2 0x6B JUMP JUMPDEST SWAP2 POP POP SWAP3 POP SWAP3 SWAP1 POP JUMP JUMPDEST PUSH1 0x80 MLOAD PUSH1 0xA0 MLOAD PUSH2 0x9EC PUSH2 0x101 PUSH0 CODECOPY PUSH0 DUP2 DUP2 PUSH2 0x4F3 ADD MSTORE DUP2 DUP2 PUSH2 0x58C ADD MSTORE DUP2 DUP2 PUSH2 0x5C3 ADD MSTORE PUSH2 0x6FD ADD MSTORE PUSH0 DUP2 DUP2 PUSH2 0x235 ADD MSTORE DUP2 DUP2 PUSH2 0x25E ADD MSTORE PUSH2 0x52E ADD MSTORE PUSH2 0x9EC PUSH0 RETURN INVALID PUSH1 0x80 PUSH1 0x40 MSTORE PUSH1 0x4 CALLDATASIZE LT PUSH2 0x85 JUMPI PUSH0 CALLDATALOAD PUSH1 0xE0 SHR DUP1 PUSH4 0x7D882097 GT PUSH2 0x58 JUMPI DUP1 PUSH4 0x7D882097 EQ PUSH2 0x12F JUMPI DUP1 PUSH4 0x7DDFE78D EQ PUSH2 0x159 JUMPI DUP1 PUSH4 0xD0E30DB0 EQ PUSH2 0x183 JUMPI DUP1 PUSH4 0xECBEA24D EQ PUSH2 0x18D JUMPI DUP1 PUSH4 0xF8B2CB4F EQ PUSH2 0x1B7 JUMPI PUSH2 0x85 JUMP JUMPDEST DUP1 PUSH4 0x2DFDF0B5 EQ PUSH2 0x89 JUMPI DUP1 PUSH4 0x2E1A7D4D EQ PUSH2 0xB3 JUMPI DUP1 PUSH4 0x370DAD80 EQ PUSH2 0xDB JUMPI DUP1 PUSH4 0x71706CBE EQ PUSH2 0x105 JUMPI JUMPDEST PUSH0 PUSH0 REVERT JUMPDEST CALLVALUE DUP1 ISZERO PUSH2 0x94 JUMPI PUSH0 PUSH0 REVERT JUMPDEST POP PUSH2 0x9D PUSH2 0x1F3 JUMP JUMPDEST PUSH1 0x40 MLOAD PUSH2 0xAA SWAP2 SWAP1 PUSH2 0x77D JUMP JUMPDEST PUSH1 0x40 MLOAD DUP1 SWAP2 SUB SWAP1 RETURN JUMPDEST CALLVALUE DUP1 ISZERO PUSH2 0xBE JUMPI PUSH0 PUSH0 REVERT JUMPDEST POP PUSH2 0xD9 PUSH1 0x4 DUP1 CALLDATASIZE SUB DUP2 ADD SWAP1 PUSH2 0xD4 SWAP2 SWAP1 PUSH2 0x7C4 JUMP JUMPDEST PUSH2 0x1F9 JUMP JUMPDEST STOP JUMPDEST CALLVALUE DUP1 ISZERO PUSH2 0xE6 JUMPI PUSH0 PUSH0 REVERT JUMPDEST POP PUSH2 0xEF PUSH2 0x4EE JUMP JUMPDEST PUSH1 0x40 MLOAD PUSH2 0xFC SWAP2 SWAP1 PUSH2 0x77D JUMP JUMPDEST PUSH1 0x40 MLOAD DUP1 SWAP2 SUB SWAP1 RETURN JUMPDEST CALLVALUE DUP1 ISZERO PUSH2 0x110 JUMPI PUSH0 PUSH0 REVERT JUMPDEST POP PUSH2 0x119 PUSH2 0x521 JUMP JUMPDEST PUSH1 0x40 MLOAD PUSH2 0x126 SWAP2 SWAP1 PUSH2 0x77D JUMP JUMPDEST PUSH1 0x40 MLOAD DUP1 SWAP2 SUB SWAP1 RETURN JUMPDEST CALLVALUE DUP1 ISZERO PUSH2 0x13A JUMPI PUSH0 PUSH0 REVERT JUMPDEST POP PUSH2 0x143 PUSH2 0x527 JUMP JUMPDEST PUSH1 0x40 MLOAD PUSH2 0x150 SWAP2 SWAP1 PUSH2 0x77D JUMP JUMPDEST PUSH1 0x40 MLOAD DUP1 SWAP2 SUB SWAP1 RETURN JUMPDEST CALLVALUE DUP1 ISZERO PUSH2 0x164 JUMPI PUSH0 PUSH0 REVERT JUMPDEST POP PUSH2 0x16D PUSH2 0x52C JUMP JUMPDEST PUSH1 0x40 MLOAD PUSH2 0x17A SWAP2 SWAP1 PUSH2 0x77D JUMP JUMPDEST PUSH1 0x40 MLOAD DUP1 SWAP2 SUB SWAP1 RETURN JUMPDEST PUSH2 0x18B PUSH2 0x550 JUMP JUMPDEST STOP JUMPDEST CALLVALUE DUP1 ISZERO PUSH2 0x198 JUMPI PUSH0 PUSH0 REVERT JUMPDEST POP PUSH2 0x1A1 PUSH2 0x6FB JUMP JUMPDEST PUSH1 0x40 MLOAD PUSH2 0x1AE SWAP2 SWAP1 PUSH2 0x77D JUMP JUMPDEST PUSH1 0x40 MLOAD DUP1 SWAP2 SUB SWAP1 RETURN JUMPDEST CALLVALUE DUP1 ISZERO PUSH2 0x1C2 JUMPI PUSH0 PUSH0 REVERT JUMPDEST POP PUSH2 0x1DD PUSH1 0x4 DUP1 CALLDATASIZE SUB DUP2 ADD SWAP1 PUSH2 0x1D8 SWAP2 SWAP1 PUSH2 0x849 JUMP JUMPDEST PUSH2 0x71F JUMP JUMPDEST PUSH1 0x40 MLOAD PUSH2 0x1EA SWAP2 SWAP1 PUSH2 0x77D JUMP JUMPDEST PUSH1 0x40 MLOAD DUP1 SWAP2 SUB SWAP1 RETURN JUMPDEST PUSH1 0x1 SLOAD DUP2 JUMP JUMPDEST DUP1 PUSH0 DUP2 SUB PUSH2 0x233 JUMPI PUSH1 0x40 MLOAD PUSH32 0x1F2A200500000000000000000000000000000000000000000000000000000000 DUP2 MSTORE PUSH1 0x4 ADD PUSH1 0x40 MLOAD DUP1 SWAP2 SUB SWAP1 REVERT JUMPDEST PUSH32 0x0 DUP3 GT ISZERO PUSH2 0x2BA JUMPI DUP2 PUSH32 0x0 PUSH1 0x40 MLOAD PUSH32 0xB945E2D800000000000000000000000000000000000000000000000000000000 DUP2 MSTORE PUSH1 0x4 ADD PUSH2 0x2B1 SWAP3 SWAP2 SWAP1 PUSH2 0x874 JUMP JUMPDEST PUSH1 0x40 MLOAD DUP1 SWAP2 SUB SWAP1 REVERT JUMPDEST PUSH1 0x3 PUSH0 CALLER PUSH20 0xFFFFFFFFFFFFFFFFFFFFFFFFFFFFFFFFFFFFFFFF AND PUSH20 0xFFFFFFFFFFFFFFFFFFFFFFFFFFFFFFFFFFFFFFFF AND DUP2 MSTORE PUSH1 0x20 ADD SWAP1 DUP2 MSTORE PUSH1 0x20 ADD PUSH0 KECCAK256 SLOAD DUP3 GT ISZERO PUSH2 0x37B JUMPI DUP2 PUSH1 0x3 PUSH0 CALLER PUSH20 0xFFFFFFFFFFFFFFFFFFFFFFFFFFFFFFFFFFFFFFFF AND PUSH20 0xFFFFFFFFFFFFFFFFFFFFFFFFFFFFFFFFFFFFFFFF AND DUP2 MSTORE PUSH1 0x20 ADD SWAP1 DUP2 MSTORE PUSH1 0x20 ADD PUSH0 KECCAK256 SLOAD PUSH1 0x40 MLOAD PUSH32 0xCF47918100000000000000000000000000000000000000000000000000000000 DUP2 MSTORE PUSH1 0x4 ADD PUSH2 0x372 SWAP3 SWAP2 SWAP1 PUSH2 0x874 JUMP JUMPDEST PUSH1 0x40 MLOAD DUP1 SWAP2 SUB SWAP1 REVERT JUMPDEST DUP2 PUSH1 0x3 PUSH0 CALLER PUSH20 0xFFFFFFFFFFFFFFFFFFFFFFFFFFFFFFFFFFFFFFFF AND PUSH20 0xFFFFFFFFFFFFFFFFFFFFFFFFFFFFFFFFFFFFFFFF AND DUP2 MSTORE PUSH1 0x20 ADD SWAP1 DUP2 MSTORE PUSH1 0x20 ADD PUSH0 KECCAK256 PUSH0 DUP3 DUP3 SLOAD PUSH2 0x3C7 SWAP2 SWAP1 PUSH2 0x8C8 JUMP JUMPDEST SWAP3 POP POP DUP2 SWAP1 SSTORE POP DUP2 PUSH0 PUSH0 DUP3 DUP3 SLOAD PUSH2 0x3DE SWAP2 SWAP1 PUSH2 0x8C8 JUMP JUMPDEST SWAP3 POP POP DUP2 SWAP1 SSTORE POP PUSH1 0x2 PUSH0 DUP2 SLOAD DUP1 SWAP3 SWAP2 SWAP1 PUSH2 0x3F7 SWAP1 PUSH2 0x8FB JUMP JUMPDEST SWAP2 SWAP1 POP SSTORE POP PUSH0 CALLER PUSH20 0xFFFFFFFFFFFFFFFFFFFFFFFFFFFFFFFFFFFFFFFF AND DUP4 PUSH1 0x40 MLOAD PUSH2 0x421 SWAP1 PUSH2 0x96F JUMP JUMPDEST PUSH0 PUSH1 0x40 MLOAD DUP1 DUP4 SUB DUP2 DUP6 DUP8 GAS CALL SWAP3 POP POP POP RETURNDATASIZE DUP1 PUSH0 DUP2 EQ PUSH2 0x45B JUMPI PUSH1 0x40 MLOAD SWAP2 POP PUSH1 0x1F NOT PUSH1 0x3F RETURNDATASIZE ADD AND DUP3 ADD PUSH1 0x40 MSTORE RETURNDATASIZE DUP3 MSTORE RETURNDATASIZE PUSH0 PUSH1 0x20 DUP5 ADD RETURNDATACOPY PUSH2 0x460 JUMP JUMPDEST PUSH1 0x60 SWAP2 POP JUMPDEST POP POP SWAP1 POP DUP1 PUSH2 0x49B JUMPI PUSH1 0x40 MLOAD PUSH32 0x90B8EC1800000000000000000000000000000000000000000000000000000000 DUP2 MSTORE PUSH1 0x4 ADD PUSH1 0x40 MLOAD DUP1 SWAP2 SUB SWAP1 REVERT JUMPDEST CALLER PUSH20 0xFFFFFFFFFFFFFFFFFFFFFFFFFFFFFFFFFFFFFFFF AND PUSH32 0x7FCF532C15F0A6DB0BD6D0E038BEA71D30D808C7D98CB3BF7268A95BF5081B65 DUP5 PUSH1 0x40 MLOAD PUSH2 0x4E1 SWAP2 SWAP1 PUSH2 0x77D JUMP JUMPDEST PUSH1 0x40 MLOAD DUP1 SWAP2 SUB SWAP1 LOG2 POP POP POP JUMP JUMPDEST PUSH0 PUSH0 SLOAD PUSH32 0x0 PUSH2 0x51C SWAP2 SWAP1 PUSH2 0x8C8 JUMP JUMPDEST SWAP1 POP SWAP1 JUMP JUMPDEST PUSH1 0x2 SLOAD DUP2 JUMP JUMPDEST PUSH0 SLOAD DUP2 JUMP JUMPDEST PUSH32 0x0 DUP2 JUMP JUMPDEST CALLVALUE PUSH0 DUP2 SUB PUSH2 0x58A JUMPI PUSH1 0x40 MLOAD PUSH32 0x1F2A200500000000000000000000000000000000000000000000000000000000 DUP2 MSTORE PUSH1 0x4 ADD PUSH1 0x40 MLOAD DUP1 SWAP2 SUB SWAP1 REVERT JUMPDEST PUSH32 0x0 CALLVALUE PUSH0 SLOAD PUSH2 0x5B8 SWAP2 SWAP1 PUSH2 0x983 JUMP JUMPDEST GT ISZERO PUSH2 0x629 JUMPI CALLVALUE PUSH0 SLOAD PUSH32 0x0 PUSH2 0x5EC SWAP2 SWAP1 PUSH2 0x8C8 JUMP JUMPDEST PUSH1 0x40 MLOAD PUSH32 0x31728A0500000000000000000000000000000000000000000000000000000000 DUP2 MSTORE PUSH1 0x4 ADD PUSH2 0x620 SWAP3 SWAP2 SWAP1 PUSH2 0x874 JUMP JUMPDEST PUSH1 0x40 MLOAD DUP1 SWAP2 SUB SWAP1 REVERT JUMPDEST CALLVALUE PUSH1 0x3 PUSH0 CALLER PUSH20 0xFFFFFFFFFFFFFFFFFFFFFFFFFFFFFFFFFFFFFFFF AND PUSH20 0xFFFFFFFFFFFFFFFFFFFFFFFFFFFFFFFFFFFFFFFF AND DUP2 MSTORE PUSH1 0x20 ADD SWAP1 DUP2 MSTORE PUSH1 0x20 ADD PUSH0 KECCAK256 PUSH0 DUP3 DUP3 SLOAD PUSH2 0x675 SWAP2 SWAP1 PUSH2 0x983 JUMP JUMPDEST SWAP3 POP POP DUP2 SWAP1 SSTORE POP CALLVALUE PUSH0 PUSH0 DUP3 DUP3 SLOAD PUSH2 0x68C SWAP2 SWAP1 PUSH2 0x983 JUMP JUMPDEST SWAP3 POP POP DUP2 SWAP1 SSTORE POP PUSH1 0x1 PUSH0 DUP2 SLOAD DUP1 SWAP3 SWAP2 SWAP1 PUSH2 0x6A5 SWAP1 PUSH2 0x8FB JUMP JUMPDEST SWAP2 SWAP1 POP SSTORE POP CALLER PUSH20 0xFFFFFFFFFFFFFFFFFFFFFFFFFFFFFFFFFFFFFFFF AND PUSH32 0xE1FFFCC4923D04B559F4D29A8BFC6CDA04EB5B0D3C460751C2402C5C5CC9109C CALLVALUE PUSH1 0x40 MLOAD PUSH2 0x6F0 SWAP2 SWAP1 PUSH2 0x77D JUMP JUMPDEST PUSH1 0x40 MLOAD DUP1 SWAP2 SUB SWAP1 LOG2 POP JUMP JUMPDEST PUSH32 0x0 DUP2 JUMP JUMPDEST PUSH0 PUSH1 0x3 PUSH0 DUP4 PUSH20 0xFFFFFFFFFFFFFFFFFFFFFFFFFFFFFFFFFFFFFFFF AND PUSH20 0xFFFFFFFFFFFFFFFFFFFFFFFFFFFFFFFFFFFFFFFF AND DUP2 MSTORE PUSH1 0x20 ADD SWAP1 DUP2 MSTORE PUSH1 0x20 ADD PUSH0 KECCAK256 SLOAD SWAP1 POP SWAP2 SWAP1 POP JUMP JUMPDEST PUSH0 DUP2 SWAP1 POP SWAP2 SWAP1 POP JUMP JUMPDEST PUSH2 0x777 DUP2 PUSH2 0x765 JUMP JUMPDEST DUP3 MSTORE POP POP JUMP JUMPDEST PUSH0 PUSH1 0x20 DUP3 ADD SWAP1 POP PUSH2 0x790 PUSH0 DUP4 ADD DUP5 PUSH2 0x76E JUMP JUMPDEST SWAP3 SWAP2 POP POP JUMP JUMPDEST PUSH0 PUSH0 REVERT JUMPDEST PUSH2 0x7A3 DUP2 PUSH2 0x765 JUMP JUMPDEST DUP2 EQ PUSH2 0x7AD JUMPI PUSH0 PUSH0 REVERT JUMPDEST POP JUMP JUMPDEST PUSH0 DUP2 CALLDATALOAD SWAP1 POP PUSH2 0x7BE DUP2 PUSH2 0x79A JUMP JUMPDEST SWAP3 SWAP2 POP POP JUMP JUMPDEST PUSH0 PUSH1 0x20 DUP3 DUP5 SUB SLT ISZERO PUSH2 0x7D9 JUMPI PUSH2 0x7D8 PUSH2 0x796 JUMP JUMPDEST JUMPDEST PUSH0 PUSH2 0x7E6 DUP5 DUP3 DUP6 ADD PUSH2 0x7B0 JUMP JUMPDEST SWAP2 POP POP SWAP3 SWAP2 POP POP JUMP JUMPDEST PUSH0 PUSH20 0xFFFFFFFFFFFFFFFFFFFFFFFFFFFFFFFFFFFFFFFF DUP3 AND SWAP1 POP SWAP2 SWAP1 POP JUMP JUMPDEST PUSH0 PUSH2 0x818 DUP3 PUSH2 0x7EF JUMP JUMPDEST SWAP1 POP SWAP2 SWAP1 POP JUMP JUMPDEST PUSH2 0x828 DUP2 PUSH2 0x80E JUMP JUMPDEST DUP2 EQ PUSH2 0x832 JUMPI PUSH0 PUSH0 REVERT JUMPDEST POP JUMP JUMPDEST PUSH0 DUP2 CALLDATALOAD SWAP1 POP PUSH2 0x843 DUP2 PUSH2 0x81F JUMP JUMPDEST SWAP3 SWAP2 POP POP JUMP JUMPDEST PUSH0 PUSH1 0x20 DUP3 DUP5 SUB SLT ISZERO PUSH2 0x85E JUMPI PUSH2 0x85D PUSH2 0x796 JUMP JUMPDEST JUMPDEST PUSH0 PUSH2 0x86B DUP5 DUP3 DUP6 ADD PUSH2 0x835 JUMP JUMPDEST SWAP2 POP POP SWAP3 SWAP2 POP POP JUMP JUMPDEST PUSH0 PUSH1 0x40 DUP3 ADD SWAP1 POP PUSH2 0x887 PUSH0 DUP4 ADD DUP6 PUSH2 0x76E JUMP JUMPDEST PUSH2 0x894 PUSH1 0x20 DUP4 ADD DUP5 PUSH2 0x76E JUMP JUMPDEST SWAP4 SWAP3 POP POP POP JUMP JUMPDEST PUSH32 0x4E487B7100000000000000000000000000000000000000000000000000000000 PUSH0 MSTORE PUSH1 0x11 PUSH1 0x4 MSTORE PUSH1 0x24 PUSH0 REVERT JUMPDEST PUSH0 PUSH2 0x8D2 DUP3 PUSH2 0x765 JUMP JUMPDEST SWAP2 POP PUSH2 0x8DD DUP4 PUSH2 0x765 JUMP JUMPDEST SWAP3 POP DUP3 DUP3 SUB SWAP1 POP DUP2 DUP2 GT ISZERO PUSH2 0x8F5 JUMPI PUSH2 0x8F4 PUSH2 0x89B JUMP JUMPDEST JUMPDEST SWAP3 SWAP2 POP POP JUMP JUMPDEST PUSH0 PUSH2 0x905 DUP3 PUSH2 0x765 JUMP JUMPDEST SWAP2 POP PUSH32 0xFFFFFFFFFFFFFFFFFFFFFFFFFFFFFFFFFFFFFFFFFFFFFFFFFFFFFFFFFFFFFFFF DUP3 SUB PUSH2 0x937 JUMPI PUSH2 0x936 PUSH2 0x89B JUMP JUMPDEST JUMPDEST PUSH1 0x1 DUP3 ADD SWAP1 POP SWAP2 SWAP1 POP JUMP JUMPDEST PUSH0 DUP2 SWAP1 POP SWAP3 SWAP2 POP POP JUMP JUMPDEST POP JUMP JUMPDEST PUSH0 PUSH2 0x95A PUSH0 DUP4 PUSH2 0x942 JUMP JUMPDEST SWAP2 POP PUSH2 0x965 DUP3 PUSH2 0x94C JUMP JUMPDEST PUSH0 DUP3 ADD SWAP1 POP SWAP2 SWAP1 POP JUMP JUMPDEST PUSH0 PUSH2 0x979 DUP3 PUSH2 0x94F JUMP JUMPDEST SWAP2 POP DUP2 SWAP1 POP SWAP2 SWAP1 POP JUMP JUMPDEST PUSH0 PUSH2 0x98D DUP3 PUSH2 0x765 JUMP JUMPDEST SWAP2 POP PUSH2 0x998 DUP4 PUSH2 0x765 JUMP JUMPDEST SWAP3 POP DUP3 DUP3 ADD SWAP1 POP DUP1 DUP3 GT ISZERO PUSH2 0x9B0 JUMPI PUSH2 0x9AF PUSH2 0x89B JUMP JUMPDEST JUMPDEST SWAP3 SWAP2 POP POP JUMP INVALID LOG2 PUSH5 0x6970667358 0x22 SLT KECCAK256 PUSH20 0x31A7686024F4F27B3E4920872E897F7758206400 SWAP12 ADDMOD 0x2B 0xF7 PUSH16 0x35709D8AC53B64736F6C634300081E00 CALLER "
		},
		"gasEstimates": {
			"creation": {
				"codeDepositCost": "508000",
				"executionCost": "infinite",
				"totalCost": "infinite"
			},
			"external": {
				"bankCap()": "infinite",
				"deposit()": "infinite",
				"depositCount()": "2426",
				"getAvailableCapacity()": "infinite",
				"getBalance(address)": "2917",
				"totalDeposits()": "2424",
				"withdraw(uint256)": "infinite",
				"withdrawalCount()": "2492",
				"withdrawalLimit()": "infinite"
			},
			"internal": {
				"_hasEnoughBalance(address,uint256)": "infinite"
			}
		},
		"methodIdentifiers": {
			"bankCap()": "ecbea24d",
			"deposit()": "d0e30db0",
			"depositCount()": "2dfdf0b5",
			"getAvailableCapacity()": "370dad80",
			"getBalance(address)": "f8b2cb4f",
			"totalDeposits()": "7d882097",
			"withdraw(uint256)": "2e1a7d4d",
			"withdrawalCount()": "71706cbe",
			"withdrawalLimit()": "7ddfe78d"
		}
	},
	"abi": [
		{
			"inputs": [
				{
					"internalType": "uint256",
					"name": "_withdrawalLimit",
					"type": "uint256"
				},
				{
					"internalType": "uint256",
					"name": "_bankCap",
					"type": "uint256"
				}
			],
			"stateMutability": "nonpayable",
			"type": "constructor"
		},
		{
			"inputs": [
				{
					"internalType": "uint256",
					"name": "attempted",
					"type": "uint256"
				},
				{
					"internalType": "uint256",
					"name": "available",
					"type": "uint256"
				}
			],
			"name": "BankCapExceeded",
			"type": "error"
		},
		{
			"inputs": [
				{
					"internalType": "uint256",
					"name": "requested",
					"type": "uint256"
				},
				{
					"internalType": "uint256",
					"name": "available",
					"type": "uint256"
				}
			],
			"name": "InsufficientBalance",
			"type": "error"
		},
		{
			"inputs": [],
			"name": "TransferFailed",
			"type": "error"
		},
		{
			"inputs": [
				{
					"internalType": "uint256",
					"name": "requested",
					"type": "uint256"
				},
				{
					"internalType": "uint256",
					"name": "limit",
					"type": "uint256"
				}
			],
			"name": "WithdrawalLimitExceeded",
			"type": "error"
		},
		{
			"inputs": [],
			"name": "ZeroAmount",
			"type": "error"
		},
		{
			"anonymous": false,
			"inputs": [
				{
					"indexed": true,
					"internalType": "address",
					"name": "user",
					"type": "address"
				},
				{
					"indexed": false,
					"internalType": "uint256",
					"name": "amount",
					"type": "uint256"
				}
			],
			"name": "Deposit",
			"type": "event"
		},
		{
			"anonymous": false,
			"inputs": [
				{
					"indexed": true,
					"internalType": "address",
					"name": "user",
					"type": "address"
				},
				{
					"indexed": false,
					"internalType": "uint256",
					"name": "amount",
					"type": "uint256"
				}
			],
			"name": "Withdrawal",
			"type": "event"
		},
		{
			"inputs": [],
			"name": "bankCap",
			"outputs": [
				{
					"internalType": "uint256",
					"name": "",
					"type": "uint256"
				}
			],
			"stateMutability": "view",
			"type": "function"
		},
		{
			"inputs": [],
			"name": "deposit",
			"outputs": [],
			"stateMutability": "payable",
			"type": "function"
		},
		{
			"inputs": [],
			"name": "depositCount",
			"outputs": [
				{
					"internalType": "uint256",
					"name": "",
					"type": "uint256"
				}
			],
			"stateMutability": "view",
			"type": "function"
		},
		{
			"inputs": [],
			"name": "getAvailableCapacity",
			"outputs": [
				{
					"internalType": "uint256",
					"name": "",
					"type": "uint256"
				}
			],
			"stateMutability": "view",
			"type": "function"
		},
		{
			"inputs": [
				{
					"internalType": "address",
					"name": "_user",
					"type": "address"
				}
			],
			"name": "getBalance",
			"outputs": [
				{
					"internalType": "uint256",
					"name": "",
					"type": "uint256"
				}
			],
			"stateMutability": "view",
			"type": "function"
		},
		{
			"inputs": [],
			"name": "totalDeposits",
			"outputs": [
				{
					"internalType": "uint256",
					"name": "",
					"type": "uint256"
				}
			],
			"stateMutability": "view",
			"type": "function"
		},
		{
			"inputs": [
				{
					"internalType": "uint256",
					"name": "_amount",
					"type": "uint256"
				}
			],
			"name": "withdraw",
			"outputs": [],
			"stateMutability": "nonpayable",
			"type": "function"
		},
		{
			"inputs": [],
			"name": "withdrawalCount",
			"outputs": [
				{
					"internalType": "uint256",
					"name": "",
					"type": "uint256"
				}
			],
			"stateMutability": "view",
			"type": "function"
		},
		{
			"inputs": [],
			"name": "withdrawalLimit",
			"outputs": [
				{
					"internalType": "uint256",
					"name": "",
					"type": "uint256"
				}
			],
			"stateMutability": "view",
			"type": "function"
		}
	]
}